:020000040800F2
:10000000401300204D02000839340008172D000865
:100010003534000887040008E136000800000000BD
:100020000000000000000000000000003F34000855
:10003000ED040008000000003D34000841340008D1
:1000400067020008670200086702000867020008EC
:1000500067020008670200086702000867020008DC
:1000600067020008670200086702000867020008CC
:10007000AD04000867020008BD040008670200081C
:1000800067020008670200086702000867020008AC
:100090008D0400089D04000867020008670200083C
:1000A000670200086702000867020008670200088C
:1000B000670200086702000867020008670200087C
:1000C000670200086702000867020008670200086C
:1000D00067020008C136000867020008D136000830
:1000E000670200086702000867020008670200084C
:1000F000670200086702000867020008670200083C
:10010000670200086702000867020008670200082B
:10011000670200086702000867020008670200081B
:100120006702000867020008CD04000867020008A3
:1001300067020008670200086702000867020008FB
:1001400067020008670200086702000867020008EB
:100150006702000867020008DD0400086702000863
:1001600067020008670200086702000867020008CB
:10017000670200086702000867020008000000002C
:10018000670200086702000800F002F800F04EF86D
:100190000AA090E8000C82448344AAF10107DA45E2
:1001A00001D100F043F8AFF2090EBAE80F0013F0E6
:1001B000010F18BFFB1A43F001031847444B00001E
:1001C000644B00000A4410F8014B14F00F0508BFFF
:1001D00010F8015B240908BF10F8014B6D1E05D013
:1001E00010F8013B6D1E01F8013BF9D1641E03D0EC
:1001F000641E01F8015BFBD19142E4D3704700001B
:100200000023002400250026103A28BF78C1FBD81F
:10021000520728BF30C148BF0B6070471FB504F0BC
:10022000DFFC00F0D5F81FBD10B510BD00F0F6F8EA
:100230001146FFF7F3FF04F067FC00F014F903B474
:10024000FFF7F2FF03BC00F017F9000009488047F0
:1002500009480047FEE7FEE7FEE7FEE7FEE7FEE7A8
:10026000FEE7FEE7FEE7FEE704480549054A064BC0
:10027000704700004934000889010008400D002043
:1002800040130020400F0020400F002053EA020CD2
:1002900000F069802DE9F04B4FF00006002B1FBFE6
:1002A000B3FA83F503FA05F424FA05F65E4012BFAB
:1002B0001643B2FA82F502FA05F4C5F120051EBF15
:1002C00022FA05FC44EA0C04203556EA044C4FEAB5
:1002D000144418BF641C4FF000084FF0000990420E
:1002E00071EB030C39D3002919BFB1FA81F701FA78
:1002F00007F6B0FA80F700FA07F6C7F120071EBF2D
:1003000020FA07FC46EA0C062037B6FBF4FCA7EB04
:100310000507103F07F01F0BCBF120060CFA0BFB73
:100320002CFA06F644BFB3460026202FA4BF5E4633
:100330004FF0000B5BEA060C08BF4FF0010B19EB06
:100340000B09ABFB027C48EB0608C01B06FB02CC8A
:100350000BFB03CC71EB0C01C1E70B460246414697
:100360004846BDE8F08B13B54FF000004FF0000198
:10037000AFF30080BDE81C4070474FF0000200B5AD
:10038000134694469646203922BFA0E80C50A0E8B8
:100390000C50B1F12001BFF4F7AF090728BFA0E866
:1003A0000C5048BF0CC05DF804EB890028BF40F832
:1003B000042B08BF704748BF20F8022B11F0804F74
:1003C00018BF00F8012B7047704770477047000056
:1003D00070B5064C7C44064D7D4403E02068204403
:1003E0008047241DAC42F9D170BD0000484900008F
:1003F0004C49000010B500F009F8006810BD10B5B8
:10040000044600F003F8046010BD00000048704787
:10041000E00C002000487047E00C00207546FFF714
:10042000F9FFAE4605006946534620F007008546B1
:1004300018B020B5FFF718FFBDE820404FF00006C8
:100440004FF000074FF000084FF0000B21F00701BC
:10045000AC46ACE8C009ACE8C009ACE8C009ACE8FF
:10046000C0098D46704710B50446AFF300802046A2
:10047000BDE81040FFF7E3BE01491820ABBEFEE720
:1004800026000200704700BFFEE7000010B50248DA
:1004900000F0C3F810BD00004C04002010B5024865
:1004A00000F0BBF810BD00004C04002010B502485D
:1004B00000F08EFB10BD00004C08002010B5024873
:1004C00000F086FB10BD0000AC08002010B502480B
:1004D00000F07EFB10BD00008C07002010B5024824
:1004E00000F076FB10BD0000EC070020704772B6EC
:1004F00000BFFEE7F0B504460A46216894F8205094
:10050000012D01D0022D7ED1424901F5007108680C
:1005100040F001000860086820F47C50086008681A
:10052000566A40EA06200860107D00F01F06012090
:1005300000FA06F3C8699843C861A1F50071D06953
:10054000C8B9D1F80C029843C1F80C02908880B267
:10055000968940EA064601F51070576940F8376001
:10056000108880B2168940EA064601F51070576976
:1005700000EBC7004660D069012819D1D1F80C0200
:100580001843C1F80C02908880B2168840EA0646EB
:1005900001F51070576940F83760908980B216896C
:1005A00040EA064601F51070576900EBC700466047
:1005B000906928B9D1F804029843C1F8040204E014
:1005C000D1F804021843C1F80402106928B9D1F81F
:1005D00014029843C1F8140204E0D1F8140218433D
:1005E000C1F81402106A012804D1D1F81C02184382
:1005F000C1F81C02D1F8000220F00100C1F800028D
:100600000020F0BDFFE7606A40F4802060620120B6
:10061000F7E700000064004070472DE9F05F0446F2
:100620000025206846692068D0F804902068876813
:100630002068D0F80CA02068D0F810B02068D0F85E
:10064000188006F00100002855D007F00100C0B165
:1006500001202168886007F0020018B1204600F0F0
:1006600046FA0EE007F0040010B145F4006508E01A
:1006700007F0080010B145F4805502E0204600F074
:1006800035FA07F48070C8B14FF480702168886033
:1006900007F4007018B1204600F02BFA0EE007F4C2
:1006A000806010B145F4005508E007F4006010B117
:1006B00045F4804502E0204600F01AFA07F4803045
:1006C000C8B14FF480302168886007F4003018B159
:1006D000204600F010FA0EE007F4802010B145F437
:1006E000004508E007F4002010B145F4803502E031
:1006F000204600F0FFF906F0080038B10AF01000BB
:1007000020B145F4007510202168C86006F004008F
:1007100040B10AF0080028B108202168C8602046CE
:1007200000F0B0F906F0020038B12068C06800F0AF
:10073000030010B1204600F0A6F906F0400038B1E1
:100740000BF0100020B145F480651020216808618D
:1007500006F0200040B10BF0080028B10820216805
:100760000861204600F090F906F0100038B12068CA
:10077000006900F0030010B1204600F086F906F48D
:10078000003040B109F0100028B110202168486005
:10079000204600F07BF906F4803040B109F00800F3
:1007A00028B1082021684860204600F0A5F906F429
:1007B000004088B309F0040078B306F4807020B1DB
:1007C00008F0010008B145F0010506F4007020B101
:1007D00008F0020008B145F0020506F4806020B17F
:1007E00008F0040008B145F0040506F40060A0B16B
:1007F00008F0700088B108F07000402817D006DCBF
:1008000010280BD020280CD0302819D10CE050280B
:1008100010D0602814D110E01DE019E045F0080563
:100820000FE045F010050CE045F0200509E045F02B
:10083000400506E045F0800503E045F4807500E0E2
:1008400000BF00BF2068806920F0700021688861C7
:100850000420216848602DB1606A28436062204608
:10086000FFF7DAFEBDE8F09F70B504460CB9012031
:1008700070BD94F8200010B9204600F0AFF8206851
:10088000006840F001002168086000F087FC054620
:100890000DE000F083FC401B0A2808D9606A40F490
:1008A00000306062052084F820000120E0E7206825
:1008B000406800F001000028EBD02068006820F0BC
:1008C00002002168086000F069FC05460DE000F0B8
:1008D00065FC401B0A2808D9606A40F40030606259
:1008E000052084F820000120C2E72068406800F05D
:1008F00002000028EBD1207E012806D12068006884
:1009000040F080002168086005E02068006820F061
:10091000800021680860607E012806D12068006898
:1009200040F040002168086005E02068006820F081
:10093000400021680860A07E012806D12068006878
:1009400040F020002168086005E02068006820F081
:10095000200021680860E07E012806D12068006838
:1009600020F010002168086005E02068006840F071
:10097000100021680860207F012806D120680068E7
:1009800040F008002168086005E02068006820F059
:10099000080021680860607F012806D1206800688F
:1009A00040F004002168086005E02068006820F03D
:1009B000040021680860D4E9020108432169084362
:1009C000616908436168491E08432168C8610020C5
:1009D0006062012084F82000002049E710B586B04D
:1009E0000446142101A8FFF7C8FC23492068884267
:1009F00040D100BF002000902048006840F0007007
:100A00001E4908600846006800F00070009000BFB2
:100A100000BF00BF0020009018481038006840F068
:100A200001001649103908600846006800F001000E
:100A3000009000BF00BF4FF4C05001900220029010
:100A400000200390032004900920059001A90C4880
:100A500000F0A4FA00221146142000F02DFC14200E
:100A600000F016FC00221146152000F025FC152090
:100A700000F00EFC06B010BD00640040403802409B
:100A8000000002407047704770477047704770B56C
:100A9000044694F82000012822D1022084F8200086
:100AA0002068006820F001002168086000F076FBF3
:100AB00005460DE000F072FB401B0A2808D9606A69
:100AC00040F400306062052084F82000012070BDF1
:100AD0002068406800F001000028EBD16062F6E772
:100AE000606A40F4002060620120F0E770477047C0
:100AF0007047704770477047704770B50446A56DE2
:100B000000F04CFB064694F83500022808D08020FF
:100B1000606500BF002084F8340000BF012070BD74
:100B20002068006820F0160021680860206840698D
:100B300020F0800021684861206C08B9A06C28B1C1
:100B40002068006820F008002168086020680068BC
:100B500020F001002168086010E000F01FFB801BFE
:100B600005280BD920206065032084F8350000BFDC
:100B7000002084F8340000BF0320D0E7206800681C
:100B800000F001000028E8D194F85C103F20884074
:100B9000A860012084F8350000BF002084F83400EC
:100BA00000BF00BFBBE7014691F83500022803D023
:100BB0008020486501207047052081F835000868CD
:100BC000006820F001000A6810600020F3E70000D0
:100BD000F8B50446002000908C4800684FF4165188
:100BE000B0FBF1F7A56D2E6894F85C1008208840E2
:100BF000304098B12068006800F0040070B12068AF
:100C0000006820F004002168086094F85C10082057
:100C10008840A860606D40F00100606594F85C1049
:100C200001208840304068B12068406900F08000B1
:100C300040B194F85C1001208840A860606D40F0DD
:100C40000200606594F85C1004208840304068B170
:100C50002068006800F0020040B194F85C100420A5
:100C60008840A860606D40F00400606594F85C10F6
:100C700010208840304078B32068006800F00800F9
:100C800050B394F85C1010208840A8602068006879
:100C900000F4802080B12068006800F4002028B9AA
:100CA000206CC8B12046216C884715E0A06C98B133
:100CB0002046A16C88470FE02068006800F480702F
:100CC00028B92068006820F0080021680860206CBE
:100CD00010B12046216C884794F85C102020884091
:100CE0003040002865D02068006800F0100000281F
:100CF0005FD094F85C1020208840A86094F83500FC
:100D0000052828D12068006820F0160021680860B6
:100D10002068406920F0800021684861206C08B993
:100D2000A06C28B12068006820F0080021680860E5
:100D300094F85C103F208840A860012084F83500BA
:100D400000BF002084F8340000BF206D10B12046A1
:100D5000216D8847F8BD2068006800F4802080B1CC
:100D60002068006800F4002028B9606C10B12046AB
:100D7000616C88471DE0E06BD8B12046E16B884785
:100D800017E02068006800F4807068B92068006887
:100D900020F0100021680860012084F8350000BFB1
:100DA000002084F8340000BFE06B10B12046E16BF6
:100DB0008847606D38B3606D00F00100F0B1052028
:100DC00084F835002068006820F001002168086080
:100DD00000BF0098401C0090B84200D905E0206890
:100DE000006800F001000028F3D100BF012084F862
:100DF000350000BF002084F8340000BFE06C10B163
:100E00002046E16C884700BFA4E700000C000020EA
:100E10002DE9F0410446002500F0C0F9074614B959
:100E20000120BDE8F081606A00B100BF022084F8B3
:100E3000350000BF002084F8340000BF206800683F
:100E400020F00100216808600AE000F0A7F9C01B4B
:100E5000052805D920206065032084F83500E0E7E7
:100E60002068006800F001000028EED120680568C5
:100E700021480540D4E901010843E168084321699C
:100E8000084361690843A1690843E1690843216A8D
:100E900008430543606A042803D1D4E90B010843E1
:100EA0000543206805602068456925F00705606AEC
:100EB0000543606A04280DD1A06A0543E06A48B181
:100EC000204603F037F928B140206065012084F8FE
:100ED0003500A6E720684561204603F081F9064603
:100EE00094F85C103F208840B060002060650120CD
:100EF00084F83500002094E73F8010F02DE9F0479A
:100F000004460D4616461F464FF00008D4F8589088
:100F100000BF94F83400012802D10220BDE8F08718
:100F2000012084F8340000BF94F83500012825D151
:100F3000022084F83500002060653B463246294691
:100F4000204603F0E1F894F85C103F208840C9F88F
:100F500008002068006840F0160021680860206CD6
:100F600028B12068006840F0080021680860206807
:100F7000006840F001002168086006E000BF002022
:100F800084F8340000BF4FF002084046C6E710B5B1
:100F90000446A0B202F068FD10BD0000F8B502469C
:100FA0000B460025002400200021D6E0012606FA89
:100FB00001F51E6806EA0504AC4274D11E7906F0FC
:100FC0000306012E04D01E7906F00306022E13D16B
:100FD00090684F000326BE40B0434F00DE68BE401D
:100FE00030439060506801268E40B0431E79C6F3AE
:100FF00000168E40304350601E7906F00306032E23
:1010000009D0D0684F000326BE40B0434F009E6811
:10101000BE403043D0601E7906F00306022E13D185
:10102000CF0802F1200656F827004E07F70E0F26CC
:10103000BE40B0434F07FF0E1E69BE403043CF088D
:1010400002F1200646F8270010684F000326BE4034
:10105000B0431E7906F003064F00BE4030431060D7
:101060005E6806F44036002E76D000BF002600965B
:101070003C4E366846F480463A4F3E603E463668FF
:1010800006F48046009600BF00BF374E8F0856F822
:1010900027008E07370F0F26BE40B043334EB242B3
:1010A00002D1002624E057E0314EB24201D10126A0
:1010B0001EE0304EB24201D1022619E02E4EB2425D
:1010C00001D1032614E02D4EB24201D104260FE0D7
:1010D0002B4EB24201D105260AE02A4EB24201D17E
:1010E000062605E0284EB24201D1072600E0082678
:1010F0008F073F0FBE4030431B4E8F0846F8270036
:10110000224E3068A0435E6806F4801606B1204384
:101110001E4E3060361D3068A0435E6806F400162F
:1011200006B12043194E361D3060184E361F306808
:10113000A0435E6806F4003606B12043134E361F06
:101140003060361F3068A0435E6806F4803606B112
:1011500020430E4E083E3060491C1029FFF426AF94
:10116000F8BD000044380240083801400000024049
:101170000004024000080240000C0240001002403F
:101180000014024000180240001C0240083C0140CC
:101190000AB1816101E00B04836170470148006876
:1011A00070470000000000200348006803490978E8
:1011B0000844014908607047000000200800002032
:1011C00010B50D48006840F400700B4908600846EF
:1011D000006840F4806008600846006840F4807051
:1011E0000860032000F0A6F80F2000F007F800F0D8
:1011F0002BF8002010BD0000003C024070B50446F2
:101200000E4800784FF47A71B1FBF0F00C49096890
:10121000B1FBF0F5284600F02FFC08B1012070BDAD
:10122000102C07D200222146501E00F045F8054838
:10123000046001E00120F2E70020F0E70800002050
:101240000C0000200400002008B500BF0020009022
:101250000E48006840F480400C4908600846006869
:1012600000F48040009000BF00BF00BF002000904D
:10127000081F006840F08050091F08600846006899
:1012800000F08050009000BF00BF08BD443802400D
:101290000146084600280DDB00BF00BF00F01F0319
:1012A00001229A4043099B0003F1E023C3F8002187
:1012B00000BF00BF00BF70472DE9F05F80460D46BC
:1012C0001646002703F044FB074639462A463346B4
:1012D00001F00700C0F1070ABAF1040F02D94FF07C
:1012E000040A01E0C0F1070AD14600F1040ABAF18C
:1012F000070F02D24FF0000A01E0A0F1030AD44622
:101300004FF0010A0AFA09FAAAF1010A0AEA020AE6
:101310000AFA0CFA4FF0010B0BFA0CFBABF1010BC4
:101320000BEA030B4AEA0B042146404603F0FCFAA1
:10133000BDE8F09F00BF00F00702064B19684FF6AA
:10134000FF031940044B0B4343EA0221014B196090
:1013500000BF70470CED00E00000FA0570B50446D0
:101360000D460CB9012070BD5848006800F0070018
:10137000A84209D255490D700846006800F00700E0
:10138000A84201D00120EEE7207800F002000228F8
:101390001DD1207800F00400042805D14C480068D5
:1013A00040F4E0504A490860207800F0080008281E
:1013B00005D14748006840F460404549086044480A
:1013C000006820F0F000A1680843414908602078D7
:1013D00000F00100A8B36068012807D13C48083834
:1013E0000068C0F34040B8B90120BCE7606802283B
:1013F00002D06068032807D1354808380068C0F378
:10140000406048B90120AEE7314808380068C0F3B1
:10141000400008B90120A6E72D48006820F003002D
:10142000616808432A490860FFF7B8FE064609E0EC
:10143000FFF7B4FE801B41F28831884202D90320B5
:1014400091E707E02248006800F00C006168B0EB0B
:10145000810FEDD11D48006800F00700A84209D9AE
:101460001A490D700846006800F00700A84201D034
:10147000012078E7207800F00400042807D1144800
:10148000006820F4E050E1680843114908602078C2
:1014900000F00800082808D10D48006820F46040DA
:1014A000216940EAC1000A49086000F03FF8084994
:1014B0000968C1F30311074A515CC8400649086036
:1014C00006480068FFF79AFE00204CE7003C024007
:1014D00008380240E84C00080C00002004000020FE
:1014E00001480068704700000C00002000B5FFF7BD
:1014F000F7FF04490968C1F38221034A515CC840DF
:1015000000BD000008380240F84C000800B5FFF7A5
:10151000E7FF04490968C1F34231034A515CC840FE
:1015200000BD000008380240F84C00082DE9F047E3
:10153000002400250026A1462548006800F00C0084
:1015400020B1042805D008283AD105E0DFF88490BE
:1015500039E0DFF8849036E01D48001F006800F095
:101560003F041B48001F006800F4800078B11A484F
:101570001749091F0968C1F38811A0FB01700146D2
:10158000224600233846FEF781FE05460EE011484C
:101590000F49091F0968C1F38811A0FB01700146BA
:1015A000224600233846FEF771FE05460848001F14
:1015B0000068C0F30140401C4600B5FBF6F902E0AC
:1015C000DFF8109000BF00BF4846BDE8F08700007C
:1015D000083802400024F40040787D01F8B5044644
:1015E0000CB90120F8BD207800F00100002874D06B
:1015F000F948006800F00C0004280DD0F648006897
:1016000000F00C00082813D1F348001F006800F414
:101610008000B0F5800F0BD1EF4808380068C0F3A8
:101620004040002859D06068002856D10120D9E7F1
:1016300000BF6068B0F5803F08D1E748083800680F
:1016400040F48030E449083908601EE06068B0F575
:10165000A02F0DD1E0480838006840F48020DE4912
:10166000083908600846006840F4803008600CE0E3
:10167000D9480838006820F48030D7490839086014
:101680000846006820F48020086000BF606890B1C0
:10169000FFF784FD054606E0FFF780FD401B642848
:1016A00001D903209EE7CC4808380068C0F34040C9
:1016B0000028F1D011E0FFF771FD054606E0FFF7C5
:1016C0006DFD401B642801D903208BE7C248083810
:1016D0000068C0F340400028F1D1207800F00200FB
:1016E00002285FD1BC48006800F00C0058B1BA482D
:1016F000006800F00C0008281CD1B748001F0068E3
:1017000000F48000B0B9B44808380068C0F3400065
:1017100020B1E068012801D0012063E7AE48083815
:10172000006820F0F800216940EAC100AA490839A0
:10173000086037E0E06800B30120A8490860FFF7BF
:101740002DFD054606E0FFF729FD401B022801D9C3
:10175000032047E7A04808380068C0F3400000288D
:10176000F1D09D480838006820F0F800216940EA6F
:10177000C10099490839086014E0002097490860C1
:10178000FFF70CFD054606E0FFF708FD401B0228A9
:1017900001D9032026E7904808380068C0F34000CC
:1017A0000028F1D1207800F0080008282CD16069C9
:1017B000A8B101208A490860FFF7F0FC054606E061
:1017C000FFF7ECFC401B022801D903200AE78248FE
:1017D0006C300068C0F340000028F1D014E0002015
:1017E0007F490860FFF7DAFC054606E0FFF7D6FC04
:1017F000401B022801D90320F4E677486C300068CA
:10180000C0F340000028F1D1207800F00400042843
:1018100070D1002770483830006800F0805090B9CF
:1018200000BF002000906C483830006840F08050C5
:101830006949383108600846006800F0805000901F
:1018400000BF00BF01276748006800F48070B0B98E
:101850006448006840F4807062490860FFF79EFCAD
:10186000054606E0FFF79AFC401B022801D9032039
:10187000B8E65C48006800F480700028F2D000BF31
:10188000A068012808D154486830006840F0010081
:101890005149683108601DE0A06805280DD14E4807
:1018A0006830006840F004004B4968310860084621
:1018B000006840F0010008600CE0474868300068AC
:1018C00020F001004449683108600846006820F0B3
:1018D0000400086000BFA068A8B1FFF75FFC0546E0
:1018E00009E0FFF75BFC401B41F28831884202D9D6
:1018F000032077E626E0384868300068C0F34000EF
:101900000028EED013E0FFF749FC054608E0FFF79A
:1019100045FC401B41F28831884201D9032061E631
:101920002D4868300068C0F340000028EFD1012F37
:1019300007D129483830006820F0805026493831D6
:10194000086000BFA069002845D02348006800F067
:101950000C0008285DD0A069022845D100201F494D
:101960000866FFF71BFC054606E0FFF717FC401B67
:10197000022801D9032035E6174808380068C0F36B
:1019800040600028F1D1D4E907010843616A40EAC8
:1019900081110122A06AC2EB500041EA00412C20D3
:1019A000005D41EA00600C49091F086001200B49F5
:1019B0000866FFF7F3FB054606E0FFF7EFFB401B69
:1019C000022801D903200DE6034808380068C0F357
:1019D00040600028F1D049E008380240000047424A
:1019E000800E474200700040002021490866FFF742
:1019F000D5FB054606E0FFF7D1FB401B022801D9C5
:101A00000320EFE51B480068C0F340600028F2D1D6
:101A10002CE0A069012800D1E4E51648001D066805
:101A2000A069012820D006F48001E06981421BD121
:101A300006F03F01206A814216D147F6C07030405F
:101A4000616AB0EB811F0FD106F440310122A06A18
:101A5000C2EB5000B1EB004F06D106F070612C20B4
:101A6000005DB1EB006F01D00120BBE50020B9E5BE
:101A7000000047420038024070B504462546681E03
:101A8000B0F1807F01D301200FE0681E4FF0E0210C
:101A900048610F214FF0FF3002F046FF00204FF069
:101AA000E021886107200861002070BD10B5034661
:101AB000002200BF93F83C00012801D1022010BD94
:101AC000012083F83C0000BF22F0FF00CC6840EA10
:101AD000040222F440708C6840EA040222F4806020
:101AE0004C6840EA040222F400600C6840EA0402F8
:101AF00022F480500C6940EA040222F400504C6940
:101B000040EA040222F48040CC6940EA04021868EA
:101B1000426400BF002083F83C0000BF00BFCEE756
:101B200030B502460B4600BF92F83C00012801D1B7
:101B3000022030BD012082F83C0000BF022082F864
:101B40003D00106844681068816824F070041868CB
:101B5000044310684460184D1068A8421BD01068F8
:101B6000B0F1804F17D0154D1068A84213D0144D16
:101B70001068A8420FD0134D1068A8420BD0124D28
:101B80001068A84207D0114D1068A84203D0104D2C
:101B90001068A84205D121F08001586801431068FF
:101BA0008160012082F83D0000BF002082F83C00E7
:101BB00000BF00BFBDE7000000000140000400407E
:101BC00000080040000C00400004014000400140BB
:101BD0000018004010B504460CB9012010BD94F85F
:101BE0003D0028B9002084F83C00204600F026F88B
:101BF000022084F83D00211D206801F02FFC012007
:101C000084F8460000BF84F83E0001213F200155C2
:101C1000402001554120015500BF00BF012084F83C
:101C2000420043200155442001554520015500BF85
:101C3000012084F83D000020D0E7000008B52B4AC1
:101C4000016891420FD100BF002100912849096825
:101C500041F01001264A11601146096801F0100197
:101C6000009100BF41E0234A0168914211D100BFB9
:101C7000002100911E49091D096841F002011C4A1A
:101C8000121D11601146096801F00201009100BFA8
:101C90002BE0194A0168914211D100BF0021009147
:101CA0001349091D096841F40031114A121D1160E0
:101CB0001146096801F40031009100BF15E00F4A98
:101CC0000168914211D100BF002100910849091D0E
:101CD000096841F48021064A121D11601146096805
:101CE00001F48021009100BF00BF08BD001000403A
:101CF00040380240000401400044014000480140D7
:101D0000014691F83D00012801D0012070470220D2
:101D100081F83D000868C06840F001000B68D86099
:101D20001A4B086898421BD00868B0F1804F17D052
:101D3000174B0868984213D0164B086898420FD08A
:101D4000154B086898420BD0144B0868984207D08E
:101D5000134B0868984203D0124B086898420CD184
:101D60000868806800F00702062A0CD0086800683E
:101D700040F001000B68186005E00868006840F05A
:101D800001000B6818600020C0E70000000001405F
:101D90000004004000080040000C00400004014026
:101DA00000400140001800402DE9F04104460D4676
:101DB000002700BF94F83C00012802D10220BDE8B2
:101DC000F081012084F83C0000BF022084F83D002F
:101DD0002068866826F0770626F47F4620688660AD
:101DE0002868502833D00CDC202850D004DC002890
:101DF0004BD0102851D149E0302849D040284CD14F
:101E000039E060282DD0702807D0B0F5805F03D06E
:101E1000B0F5005F41D10DE041E0D5E902136A68F9
:101E2000206801F0A0FB2068866846F077062068ED
:101E3000866034E0D5E902136A68206801F093FBFC
:101E40002068806840F480402168886027E0EA6864
:101E50006968206802F085FA5021206802F078FA5B
:101E60001DE0EA686968206802F08EFA6021206847
:101E700002F06EFA13E0EA686968206802F071FA0D
:101E80004021206802F064FA09E000BF00BF00BFF3
:101E90002968206802F05CFA01E0012700BF00BF5A
:101EA000012084F83D0000BF002084F83C0000BF02
:101EB000384684E72DE9F04104460D4614B9012067
:101EC000BDE8F08194F83D0028B9002084F83C007A
:101ED000204600F053F8022084F83D002068806816
:101EE00044F20701884321688860211D206801F0C1
:101EF000B5FA2068D0F80880206886692068076AEB
:101F0000286840EA080840F203308643A969A868B7
:101F100040EA0120064340F60C4086434FF2F000B1
:101F20008643E969E86840EA012006432869000120
:101F3000296A40EA0130064327F0220727F0880784
:101F40006969686840EA011007432068C0F80880A2
:101F50002068866120680762012084F8460084F8C2
:101F60003E0001213F200155012084F8420043201A
:101F70000155012084F83D000020A1E710B586B08E
:101F80000446142101A8FEF7F8F92068B0F1804F4B
:101F90004BD100BF002000907348006840F0010062
:101FA000714908600846006800F00100009000BF19
:101FB00000BF00BF002000906B481038006840F060
:101FC00001006949103908600846006800F0010006
:101FD000009000BF00BF00BF0020009008460068CE
:101FE00040F0020008600846006800F0020000901F
:101FF00000BF00BF2020019002200290002003902B
:1020000004900120059001A95848FEF7C7FF082059
:10201000019002200290002003900490012005907E
:1020200001A95348FEF7BAFF9BE052492068884255
:102030002FD100BF002000904B48006840F0020004
:10204000494908600846006800F00200009000BF9F
:1020500000BF00BF0020009043481038006840F0E7
:1020600001004149103908600846006800F001008D
:10207000009000BF00BFC02001900220029000200D
:10208000039004900220059001A93848FEF786FFCE
:1020900067E039492068884230D100BF00200090B5
:1020A0003148006840F004002F4908600846006885
:1020B00000F00400009000BF00BF00BF00200090AF
:1020C00029481038006840F0080027491039086096
:1020D0000846006800F00800009000BF00BF4FF401
:1020E00040500190022002900020039004900220B2
:1020F000059001A92148FEF751FF32E020492068F0
:1021000088422ED100BF002000901748006840F0A0
:102110000800154908600846006800F008000090B3
:1021200000BF00BF00BF002000900F4810380068BB
:1021300040F001000C49103908600846006800F0C2
:102140000100009000BF00BF032001900220029018
:102150000020039004900220059001A90348FEF797
:102160001DFF06B010BD00004038024000000240D4
:10217000000402400004004000080040000C02403F
:10218000000C00402DE9F04304460D4694F83E60F3
:102190003F20075D94F84280432010F804906DB909
:1021A000012E02D1B8F1010F02D00120BDE8F08369
:1021B000022084F83E0084F8420025E0042D0CD172
:1021C000012F02D1B9F1010F01D00120EEE7022168
:1021D0003F2001554320015516E0012E07D1012F64
:1021E00005D1B8F1010F02D1B9F1010F01D00120E1
:1021F000DCE7022084F83E0002213F200155022046
:1022000084F842004320015515B1042D0CD105E09E
:1022100001220021206801F095F910E0012204213B
:10222000206801F08FF90AE001220021206801F006
:1022300089F901220421206801F084F900BF00BF60
:102240002068006840F00100216808600020ADE7C8
:1022500010B586B00446142101A8FEF78EF8454952
:10226000206888421ED100BF0020009042480068CC
:1022700040F00400404908600846006800F004008F
:10228000009000BF00BF4FF47070019002200290D8
:102290000020039004900320059001A93748FEF721
:1022A0007DFE64E03649206888421DD100BF0020D1
:1022B00000903148006840F010002F49086008463F
:1022C000006800F01000009000BF00BF6020019087
:1022D000022002900020039004900320059001A9A1
:1022E0002848FEF75BFE42E02749206888421DD15E
:1022F00000BF002000902048006840F020001E49E8
:1023000008600846006800F02000009000BF00BF91
:1023100040200190022002900020039004900320AE
:10232000059001A91948FEF739FE20E018492068F8
:1023300088421CD100BF002000900F48006840F088
:1023400020000D4908600846006800F02000009059
:1023500000BF00BF80200190022002900020039067
:1023600004900320059001A90848FEF717FE06B067
:1023700010BD000000040140303802400008024057
:10238000004001400010024000440140001402409F
:10239000004801402DE9F04104460D46164600274D
:1023A00000BF94F83C00012802D10220BDE8F08172
:1023B000012084F83C0000BF36B1042E1BD0082E4B
:1023C00031D00C2E5ED145E02946206801F022FF75
:1023D0002068806940F00800216888612068806971
:1023E00020F0040021688861206880692969084319
:1023F0002168886148E02946206801F0BFF820681C
:10240000806940F40060216888612068806920F458
:1024100080602168886120688069296940EA01201C
:102420002168886130E02946206801F02BFF206890
:10243000C06940F008002168C8612068C06920F0C8
:1024400004002168C8612068C069296908432168BF
:10245000C86119E02946206801F050FF2068C06972
:1024600040F400602168C8612068C06920F4806081
:102470002168C8612068C069296940EA0120216893
:10248000C86101E0012700BF00BF00BF002084F841
:102490003C0000BF384689E710B504460CB901205E
:1024A00010BD94F83D0028B9002084F83C00204677
:1024B00000F026F8022084F83D00211D206800F07D
:1024C000CDFF012084F8460000BF84F83E000121C2
:1024D0003F200155402001554120015500BF00BF5C
:1024E000012084F842004320015544200155452035
:1024F000015500BF012084F83D000020D0E7000016
:1025000008B50A4A016891420FD100BF002100912D
:102510000749096841F48031054A1160114609688C
:1025200001F48031009100BF00BF08BD00400140B0
:102530004438024070B504460D4615B994F83E0083
:102540000BE0042D02D13F20005D06E0082D02D1F2
:102550004020005D01E04120005D012801D0012004
:1025600070BD1DB9022084F83E000EE0042D03D199
:1025700002213F20015508E0082D03D1022140200F
:10258000015502E00221412001550122294620681F
:1025900000F0D8FF23492068884203D022492068F0
:1025A000884201D1012000E0002028B12068406C61
:1025B00040F40040216848641A49206888421BD0D2
:1025C0002068B0F1804F17D018492068884213D096
:1025D0001749206888420FD01649206888420BD0DE
:1025E00011492068884207D013492068884203D0E7
:1025F0001249206888420CD12068806800F00706E4
:10260000062E0CD02068006840F0010021680860A8
:1026100005E02068006840F00100216808600020A3
:102620009EE700000000014000040140000400405B
:1026300000080040000C004000400140001800402D
:10264000F8B504460E46174694F8420020282ED1CD
:1026500006B10FB90120F8BD01202063002060639E
:102660003A463146204600F0C7FF0546EDB9206BDB
:10267000012819D100BF0020009020680068009058
:1026800020684068009000BF00BF00BF00BF216805
:102690000C3151E8001F41F0100021680C3141E875
:1026A0000002002AF3D100E001252846D3E70220EA
:1026B000D1E7000070B504460D460449206809685A
:1026C000884202D1024801F02DF970BD4407002074
:1026D0004402002038B50446204600F04FF800F0D0
:1026E000010050B100BF00200090206800680090F9
:1026F00020684068009000BF32E0204600F03EF8BD
:1027000000F0020050B100BF002000902068006877
:10271000009020684068009000BF21E0204600F053
:102720002DF800F0040050B100BF00200090206898
:102730000068009020684068009000BF10E02046CC
:1027400000F01CF800F0080050B100BF002000901D
:1027500020680068009020684068009000BF00BFBB
:10276000044920680968884202D1034801F0DAF878
:1027700038BD000044070020440200200146486C98
:10278000704700002DE9F84F04462068056820686E
:10279000C668206847694FF00009CA4605F00F096E
:1027A000B9F1000F0AD105F0200038B106F0200081
:1027B00020B1204601F03AFFBDE8F88FB9F1000FD3
:1027C0007CD007F0010018B906F49070002875D08D
:1027D00005F0010030B106F4807018B1606C40F073
:1027E0000100606405F0040030B107F0010018B189
:1027F000606C40F00200606405F0020030B107F048
:10280000010018B1606C40F00400606405F008003D
:1028100048B106F0200010B907F0010018B1606C53
:1028200040F008006064606C002846D005F020008D
:1028300028B106F0200010B1204601F0F7FE206814
:102840004069C0F3801A606C00F0080010B9BAF15A
:10285000000F2DD0204601F0A9FF2068406900F04C
:102860004000402820D100BF00BF2168143151E84A
:10287000001F21F040002168143141E80002002AC5
:10288000F3D100BFE06B50B17748E16B0865E06BB6
:10289000FEF789F988B1E06B016D88470DE02046AD
:1028A000FFF718FF09E009E02046FFF713FF04E0F7
:1028B0002046FFF70FFF002060647DE7206B0128B2
:1028C00078D105F01000002874D006F01000002820
:1028D000FAD000BF002000902068006800902068B7
:1028E0004068009000BF00BF2068406900F04000D1
:1028F000402860D1E06B006840681FFA80F8B8F1AA
:10290000000F56D0A08D404553DDA4F82E80E06B1B
:10291000C069B0F5807F43D000BF00BF21680C3193
:1029200051E8001F21F4807021680C3141E8000259
:10293000002AF3D100BF00BF00BF2168143151E865
:10294000001F21F001002168143141E80002002A33
:10295000F3D100BF00BF00BF2168143151E8001F50
:1029600021F040002168143141E80002002AF3D12F
:1029700000BF202084F842000020206300BF00BF79
:1029800021680C3151E8001F21F0100021680C3142
:1029900041E80002002AF3D100BFE06BFEF7ADF87A
:1029A00002206063A08DE28D801A81B22046FFF77D
:1029B00081FE01E742E0A08DE18D401A1FFA80F808
:1029C000E08DD0B3B8F1000F37D000BF00BF216851
:1029D0000C3151E8001F21F4907021680C3141E85E
:1029E0000002002AF3D100BF00BF00BF21681431EC
:1029F00051E8001F21F001002168143141E8000274
:102A0000002AF3D100BF202084F842000020206378
:102A100000BF00BF21680C3151E8001F21F01000F9
:102A200021680C3141E80002002AF3D100BF0220E6
:102A3000606341462046FFF73DFEBDE605F080009D
:102A400030B106F0800018B1204601F06DFEB3E60B
:102A500005F0400030B106F0400018B1204601F00A
:102A600048FFA9E600BFA7E61349000810B50446D1
:102A70000CB9012010BDA06900B100E000BF94F8BE
:102A8000410028B9002084F84000204600F02AF8D0
:102A9000242084F841002068C06820F40050216898
:102AA000C860204601F0ACFC2068006920F490402A
:102AB000216808612068406920F02A002168486187
:102AC0002068C06840F400502168C860002060643D
:102AD000202084F8410084F842000020606300BF99
:102AE000C8E7000010B586B00446142101A8FDF720
:102AF00044FC7C492068884276D100BF00200090C9
:102B00007948006840F0100077490860084600687E
:102B100000F01000009000BF00BF00BF0020009038
:102B200071481438006840F001006F49143908609A
:102B30000846006800F00100009000BF00BF4FF49D
:102B4000C0600190022002900020039003200490B6
:102B50000720059001A96548FEF720FA64486549F9
:102B600008604FF000604860002162488160C160E9
:102B70004FF480610161002141618161C1610162A5
:102B80004162FEF745F908B1FDF7B1FC00BF5948B5
:102B9000E063846300BF56487830574908604FF0BF
:102BA000006048604021544881600021C1604FF4BA
:102BB00080610161002141618161C1610162416205
:102BC000FEF726F908B1FDF792FC00BF4A48A06362
:102BD000846300BF002211462520FEF76DFB2520EF
:102BE000FEF756FB7BE0FFE744492068884276D138
:102BF00000BF002000903C48001F006840F4802087
:102C00003949091F08600846006800F480200090D8
:102C100000BF00BF00BF0020009033481438006898
:102C200040F002003049143908600846006800F09E
:102C30000200009000BF00BF4FF4406001900220EE
:102C4000029000200390032004900720059001A922
:102C50002B48FEF7A3F92B482B4908604FF0006082
:102C60004860002128488160C1604FF480610161A3
:102C7000002141618161C16101624162FEF7C8F8D2
:102C800008B1FDF734FC00BF1F48E063846300BF58
:102C90001C4830301D4908604FF0006048604021FA
:102CA0001A4881600021C1604FF4806101610021F8
:102CB00041618161C16101624162FEF7A9F808B119
:102CC000FDF715FC00BF1148A063846300BF00221C
:102CD00011462720FEF7F0FA2720FEF7D9FA06B0B2
:102CE00010BD0000001001404438024000000240C6
:102CF000406402408C070020EC07002000480040A0
:102D000000040240286002404C080020AC0800206B
:102D100070477047704700BFFEE7000010B50F48CE
:102D20000F4908600220486000210D488160C160A1
:102D30004FF4602101614FF480014161002101766F
:102D40000121417600218176C17601774177FDF737
:102D50008BFD08B1FDF7CBFB10BD00000064004007
:102D60004C04002008B500BF002000901E480068F9
:102D700040F480001C4908600846006800F48000A8
:102D8000009000BF00BF00BF002000900846006810
:102D900040F4001008600846006800F4001000903D
:102DA00000BF00BF002211460C20FEF785FA0C2060
:102DB000FEF76EFA002211460E20FEF77DFA0E2075
:102DC000FEF766FA002211463A20FEF775FA3A201D
:102DD000FEF75EFA002211464620FEF76DFA462005
:102DE000FEF756FA08BD00003038024000B587B043
:102DF000142102A8FDF7C1FA00BF002001904D4840
:102E0000006840F010004B4908600846006800F078
:102E10001000019000BF00BF00BF002001900846D5
:102E2000006840F0200008600846006800F02000BC
:102E3000019000BF00BF00BF00200190084600685D
:102E400040F0800008600846006800F080000190B3
:102E500000BF00BF00BF002001900846006840F09E
:102E6000040008600846006800F00400019000BFFC
:102E700000BF00BF002001900846006840F001003C
:102E800008600846006800F00100019000BF00BF24
:102E900000BF002001900846006840F00200086072
:102EA0000846006800F00200019000BF00BF00BFAC
:102EB000002001900846006840F0080008600846BD
:102EC000006800F00800019000BF00BF00BF0020B4
:102ED00001900846006840F040000860084600681D
:102EE00000F04000019000BF00BF00220F211248F7
:102EF000FEF74EF900224FF4F0411048FEF748F972
:102F00000F2002900120039004900020059002A958
:102F10000948FEF743F84FF4F04002900120039077
:102F200004900020059002A90448FEF737F807B086
:102F300000BD000030380240000802400018024086
:102F400000B587B01C216846FDF717FA15481649E9
:102F500008605320486000211348816044F61F61D7
:102F6000C160002101618161FEF734FE08B1FDF707
:102F7000BEFA0D48FFF790FA08B1FDF7B8FA6020E5
:102F800000900020019002900490002269460648BB
:102F9000FFF700FA08B1FDF7AAFA0348FFF758F95E
:102FA00007B000BD004401406C06002000B587B0AA
:102FB0001C216846FDF7E1F91548164908605320C1
:102FC00048600021134881604FF6FF71C160002105
:102FD00001618161FEF7FEFD08B1FDF788FA0D4839
:102FE000FFF75AFA08B1FDF782FA6020009000203E
:102FF000019002900490002269460648FFF7CAF942
:1030000008B1FDF774FA0348FFF722F907B000BDD5
:1030100000480140B406002000B58BB0242102A86E
:10302000FDF7ABF90020009001904FF08040174968
:10303000086000204860002114488160491EC1607A
:103040000021016181610320029000200390012092
:103050000490002005900690079001200890002021
:1030600009900A9002A90948FEF724FF08B1FDF76C
:103070003EFA00200090019069460448FEF750FD9A
:1030800008B1FDF734FA0BB000BD00007404002055
:1030900000B58BB0242102A8FDF76FF90020009045
:1030A000019018481849086000204860002116481F
:1030B00081604FF6FF71C1600021016181610320D1
:1030C00002900020039001200490002005900690BB
:1030D000079001200890002009900A9002A90A4850
:1030E000FEF7E8FE08B1FDF702FA0020009001901B
:1030F00069460548FEF714FD08B1FDF7F8F90BB075
:1031000000BD000000040040BC04002000B58BB0EE
:10311000242102A8FDF731F9002000900190184801
:1031200018490860002048600021164881604FF669
:10313000FF71C160002101618161032002900020C4
:103140000390012004900020059006900790012034
:103150000890002009900A9002A90A48FEF7AAFEEA
:1031600008B1FDF7C4F900200090019069460548B8
:10317000FEF7D6FC08B1FDF7BAF90BB000BD0000B0
:10318000000800400405002000B58BB0242102A8EF
:10319000FDF7F3F8002000900190174817490860E8
:1031A00000204860002115488160491EC16000214F
:1031B00001618161032002900020039001200490AE
:1031C00000200590069007900120089000200990AB
:1031D0000A9002A90948FEF76DFE08B1FDF787F9CC
:1031E00000200090019069460448FEF799FC08B160
:1031F000FDF77DF90BB000BD000C00404C05002030
:103200001CB50020009001900E480F490860532023
:10321000486000210C48816040F2E731C160002124
:103220008161FEF7D7FC08B1FDF761F9002000903D
:10323000019069460448FEF773FC08B1FDF757F9A1
:103240001CBD0000001000409405002000B595B0A2
:10325000002011901290139014900F9010901C2148
:1032600008A8FDF78AF820216846FDF786F8374858
:10327000374908600020486000213548816042F2EB
:10328000CF01C1600021016141618161FEF7A2FCB3
:1032900008B1FDF72CF94FF48050119011A92C487A
:1032A000FEF782FD08B1FDF722F92948FFF7F4F88F
:1032B00008B1FDF71CF900200F9010900FA92448C9
:1032C000FEF72EFC08B1FDF712F9602008900020EF
:1032D00009900A900B900C900D900E90002208A976
:1032E0001B48FFF757F808B1FDF701F9042208A9B8
:1032F0001748FFF74FF808B1FDF7F9F8082208A9B9
:103300001348FFF747F808B1FDF7F1F80C2208A9B8
:103310000F48FFF73FF808B1FDF7E9F800200090EB
:1033200001900290039004904FF40050059000200B
:10333000079069460648FEF7B9FB08B1FDF7D7F8D4
:103340000348FEF785FF15B000BD000000040140F2
:10335000DC05002000B587B01C216846FDF70DF89C
:1033600016481749086053204860002114488160BE
:1033700040F61F51C160002101618161FFF78CF8A7
:1033800008B1FDF7B4F86020009000200190029091
:103390000490002269460A48FEF7FCFF08B1FDF7D9
:1033A000A6F8042269460648FEF7F4FF08B1FDF7C7
:1033B0009EF80348FEF74CFF07B000BD00400140F7
:1033C0002406002010B50B480B4908604FF4E1308B
:1033D0004860002108488160C16001610C214161A1
:1033E00000218161C161FFF741FB08B1FDF77FF862
:1033F00010BD000000100140FC06002010B50B4875
:103400000B4908604FF4E1304860002108488160B2
:10341000C16001610C21416100218161C161FFF73F
:1034200025FB08B1FDF763F810BD0000004800401F
:103430004407002000BFFEE700BFFEE7704770476B
:1034400010B5FDF7B1FE10BD0348006840F47000F0
:10345000014908607047000088ED00E010B502687F
:103460002D4B98420ED0B0F1804F0BD02B4B984291
:1034700008D02B4B984205D02A4B984202D02A4BB9
:10348000984203D122F070024B681A43224B9842B3
:1034900020D0B0F1804F1DD0204B98421AD0204B45
:1034A000984217D01F4B984214D01F4B984211D00E
:1034B0001E4B98420ED01E4B98420BD01D4B98428B
:1034C00008D01D4B984205D01C4B984202D01C4B93
:1034D000984203D122F44072CB681A4322F0800351
:1034E0004C6943EA040202608B68C3620B68836222
:1034F000094B984202D00C4B984201D10B690363EF
:1035000001234361036903F001031BB1036923F045
:103510000103036110BD00000000014000040040F1
:1035200000080040000C0040000401400040014041
:10353000004401400048014000180040001C0040C9
:103540000020004030B501F01F05012404FA05F306
:10355000046A9C430462046A01F01F0502FA05F53F
:103560002C43046230BD30B50C46816821F47F41A4
:1035700042EA032525432943816030BD30B5026A04
:10358000056A25F0100505624368846924F4E04467
:1035900024F440740D6844EA052422F020028D686A
:1035A00042EA0512124DA84200D103E0114DA84293
:1035B00007D100BF22F08002CD6842EA051222F056
:1035C00040020B4DA84202D00A4DA84209D123F473
:1035D000806323F400634D6943EA85038D6943EA00
:1035E0008503436084614D688563026230BD0000DD
:1035F000000001400004014077B581B00446154643
:103600000298A062A58500206064222084F8420010
:103610002848E16BC8632848E16B08642748E16BE0
:10362000C8640020E16B086502AE32682368191D8A
:103630002B46E06BFDF762FC00BF00200090206885
:103640000068009020684068009000BF00BF2069BB
:1036500070B100BF00BF21680C3151E8001F41F478
:10366000807021680C3141E80002002AF3D100BFCC
:1036700000BF00BF2168143151E8001F41F0010074
:103680002168143141E80002002AF3D100BF00BFD5
:1036900000BF2168143151E8001F41F0400021684B
:1036A000143141E80002002AF3D100BF002004B029
:1036B00070BD00003F48000889470008B14300087A
:1036C00010B50248FFF75EF810BD0000FC060020B0
:1036D00010B50248FFF756F810BD0000440700205F
:1036E00000BFFEE710B500BF0120234981F890021A
:1036F00000BF9FED221ADFED210A9FED210A084647
:1037000000F036FC4FF47A70FDF741FC9FED1B1A78
:10371000DFED1B0A9FED190A174800F029FC4FF452
:103720007A70FDF734FC9FED151ADFED140A9FED5A
:10373000150A114800F01CFC4FF47A70FDF727FCC5
:103740009FED0E1ADFED0F0A9FED0C0A0A4800F0FC
:103750000FFC4FF47A70FDF71AFC9FED0B1ADFEDAA
:10376000070A9FED060A044800F002FC4FF47A7045
:10377000FDF70DFC10BD0000240900200000000032
:10378000CDCCCC3DCDCCCCBD7CD9A03E10B5A820B5
:1037900000F030F80E4800F02FF9B3EE041ADFED18
:1037A0000D0A9FED0D0A00220C490D4800F052FB56
:1037B0003221B3EE0A0A0B4800F0E8FB0A4B132251
:1037C00016210A4800F093F90948FEF799FA10BD4E
:1037D00010000020000000000000344324060020F8
:1037E0000C0900202409002001032520B80B00202B
:1037F000940500200149086070470000380000204F
:10380000F0B58BB007460C4615461E4604F0020084
:1038100080B1E8040190E80004F0030140EA4100AF
:103820000290F0040390F00004F0030140EA41002C
:10383000049009E068010190A007400F0290700118
:103840000390A007400F0490E0100690C4F380009E
:1038500005900120099000200790012008900E207B
:103860000A9001A93846FCF745FE0BB0F0BD0000F8
:1038700000B593B0302107A8FCF77FFD142102A802
:10388000FCF77BFD00BF002001902448006840F059
:103890008050224908600846006800F0805001907E
:1038A00000BF00BF00BF002001901D48006840F429
:1038B00080401B4908600846006800F48040019081
:1038C00000BF00BF012007900004089002200D9067
:1038D00041050E9119210F914FF4A8711091022109
:1038E00011910421129107A8FDF778FE08B1FCF7A9
:1038F000FEFD0F20029002200390002004904FF460
:10390000A05005904FF480500690052102A8FDF7C5
:1039100025FD08B1FCF7EBFD13B000BD40380240B7
:103920000070004070B50446B4F8042204F58271BA
:103930002068FEF785FE05462068C06B00680068B9
:1039400020F008002168C96B09680860284670BD2E
:103950002DE9F04105460E46F02E24D12C46207864
:10396000032815D154F8012F6068A168641E0F4B1D
:1039700093F8903253B10D4BC3F88422C3F88802F8
:10398000C3F88C120323094F87F8903200BF09E077
:103990002078012802D02078022803D1217803481A
:1039A00000F0A8FB00BFBDE8F08100002409002062
:1039B000F0B503460E469BB9144600200DE0C0EB5F
:1039C000C00505EB4015074F07EB8501D1F88C507A
:1039D00004EB80010D60411CC8B20428EFDB00BF7E
:1039E000F0BD00002409002010B50121014800F0BD
:1039F00081FB10BD2409002070B505462C682046C7
:103A0000FDF745F82068406940F0020021684861F0
:103A10002068406940F01000216848611049206822
:103A200088420CD100231A4619462046FFF7E8FECB
:103A300000231A460C212046FFF7E2FE0FE0094959
:103A4000206888420BD100231A4670212046FFF7D8
:103A5000D7FE00231A467C212046FFF7D1FE70BD19
:103A6000006400400068004010B504464FF47A71CD
:103A700004FB01F000F002F810BD000070B5034631
:103A80000E4E366803FB06F44FF0E02675690022FF
:103A9000B16910E04FF0E026B06988420BD088424F
:103AA00002D20E1A324402E02E1A0E44324401466B
:103AB000A24200D300E0EDE700BF70BD3800002057
:103AC00070B504460D46A4F80452B4F8042204F577
:103AD00082712068FEF7B4FD2068C06B0068006842
:103AE00020F008002168C96B0968086070BD2DE9E5
:103AF000F04104460D4616461F46802D00DD802508
:103B0000802E00DD80262572667267606068A06185
:103B1000617A2068FFF7D4FF2068FFF703FFBDE854
:103B2000F08130B5039C0025C0F8205180F8245165
:103B3000C16002614361046030BD2DE9F05F2DED8D
:103B4000028B04460D4616461F46B0EE408AF0EE44
:103B5000608ADDE90EABDDE90C89E56526666766FE
:103B6000C4F86880C4F86C90C4F870A0C4F874B04D
:103B700084ED1E8AC4ED1F8A1098A4F88000119865
:103B8000A4F8820094ED1E0A84ED070A00BF2046C7
:103B900000F00CF83C21E06DFEF7F4FAD4E91801CE
:103BA000FEF7C8FCBDEC028BBDE8F09F30B587B0D6
:103BB0000546142102A8FCF7E0FB01200390002039
:103BC0000490022005900024BAE005F1680050F846
:103BD00024005E4988420FD100BF002001905C485C
:103BE000006840F001005A4908600846006800F08B
:103BF0000100019000BF89E005F1680050F8240041
:103C0000544988420FD100BF0020019050480068FD
:103C100040F002004E4908600846006800F00200CB
:103C2000019000BF72E005F1680050F824004A4995
:103C300088420FD100BF002001904548006840F045
:103C40000400434908600846006800F00400019041
:103C500000BF5BE005F1680050F824003F4988424E
:103C60000FD100BF002001903948006840F00800E3
:103C7000374908600846006800F00800019000BF5E
:103C800044E005F1680050F82400354988420FD11E
:103C900000BF002001902E48006840F010002C4921
:103CA00008600846006800F01000019000BF2DE099
:103CB00005F1680050F824002A4988420FD100BF5E
:103CC000002001902248006840F020002049086050
:103CD0000846006800F02000019000BF16E005F1E2
:103CE000680050F82400204988420FD100BF00200E
:103CF00001901748006840F04000154908600846E8
:103D0000006800F04000019000BF00BF05F17000A6
:103D100050F82400029005F1680151F8240002A92E
:103D2000FDF73CF905F1700232F8242091B205F15B
:103D3000680252F824000122FDF72AFA601CC4B27E
:103D4000022CFFF642AF07B030BD00000000024079
:103D5000303802400004024000080240000C0240DB
:103D600000100240001402400018024001469FED7E
:103D7000340A80ED000A9FED320A80ED020A9FEDC1
:103D8000300A80ED030A9FED2E0A80ED040A9FEDB4
:103D90002C0A80ED050A9FED2A0A80ED060A9FEDA8
:103DA000280A80ED070A9FED260A80ED080A9FED9C
:103DB000240A81ED090A9FED220A81ED0A0A9FED8E
:103DC000200A81ED0B0A9FED1E0A81ED0C0A9FED82
:103DD0001C0A81ED0F0A9FED1A0A81ED100A9FED72
:103DE000180A81ED110A9FED160A81ED120A9FED66
:103DF000140A81ED130A50319FED110A81ED010A79
:103E00009FED0F0A81ED020A50390846B7EE000A0D
:103E100081ED210A9FED0A0A81ED220A9FED080A31
:103E200081ED230A9FED060A81ED240A9FED040A25
:103E300081ED250A002180F89810A0F89A107047AB
:103E400000000000B5EEC00AF1EE10FA01DD80EDD1
:103E5000000A704770B52DED048B04460D461646DA
:103E6000B0EE408AF0EE608AB0EE419A256066605E
:103E700084ED038AC4ED048A9FED050A204600F014
:103E800009F8D4E90001FEF755FBBDEC048B70BDC9
:103E90000000000070B52DED028B0446B0EE408AA4
:103EA00094ED040A30EE080AB0EE408ADFED2E0AE7
:103EB000B0EE480A00F07FFDB0EE408A94ED030AB0
:103EC000B4EEC80AF1EE10FA04D294ED030AB0EE93
:103ED000408A08E0B5EEC08AF1EE10FA03D29FEDF9
:103EE000230AB0EE408A84ED058A94ED050A94ED2C
:103EF000031AC0EE010AB0EE001AB6EE000A00EE98
:103F0000810A94ED021AC0EE010A2068C068401CC4
:103F100000EE100AB8EE400A20EE800ABCEEC00A9D
:103F200010EE100A451E606818B9206800684563E5
:103F300010E06068042803D120680068856309E008
:103F40006068082803D120680068C56302E0206823
:103F50000068056494ED050AD4ED040A30EE600AA9
:103F6000BDEC028B70BD00000000B44300000000F7
:103F700090F8901241B180EDA10AC0EDA20A80ED47
:103F8000A31A032180F890127047000070B52DED40
:103F9000028B86B00446B0EE408A0E4684ED9F8ABE
:103FA000A4F8806232200D2108220223CDE90232DA
:103FB000CDE9041045480090F3EE0B0AB3EE040A75
:103FC0000023434A434901902046FFF7B6FD3220C3
:103FD0000D214FF480429310CDE90232CDE9041057
:103FE0003D480090F3EE0B0AB3EE040A0423384A6E
:103FF0003A49019004F19C00FFF79FFD32200D210A
:104000004FF400529310CDE90232CDE9041032484A
:104010000090F3EE0B0AB3EE040A08232C4A304951
:10402000019004F59C70FFF788FD32200D210422D9
:104030000123CDE90232CDE9041024480090F3EECB
:104040000B0AB3EE040A0C23214A2649019004F519
:10405000EA70FFF772FD00252CE0C5EBC50101EB0E
:10406000451104EB810000219FED1F5ADFED1E4A30
:104070009FED1D4ADFED1C3A9FED1C3AF3EE042A3A
:10408000B2EE042ADFED181A9FED171AF1EE040ABA
:104090009FED170A00F064FCC5EBC50101EB45116B
:1040A00004EB810101F15000B1EE040AFFF7CAFEF2
:1040B000681CC5B2042DD0DB00BF012084F890023B
:1040C00000BF06B0BDEC028B70BD000000080240CE
:1040D000DC0500207404002000180240BC0400200D
:1040E000040500204C05002000000000CDCC4C3D14
:1040F000CDCCCC3D90F890222AB1012901D00229E3
:1041000001D180F89012704730B50468246824F417
:10411000802405682C60046863608468402C04D1A6
:104120000468A2600468E16003E00468A1600468B8
:10413000E26030BD014600208A6A8B69CBB932B19A
:10414000012A0DD0022A03D0032A10D10EE000BFAD
:10415000CB6A03F08073B3F1807F00D1012007E0C8
:10416000CB6AB3F1C07F00D1012001E000E000BFC5
:1041700034E08B69B3F5005F1AD132B1012A07D060
:10418000022A03D0032A11D10AE000BF01200EE069
:10419000CB6A03F08073B3F1807F00D1012006E089
:1041A000CB6AB3F1C07F00D1012000E000BF15E071
:1041B00032B1012A05D0022A04D0032A0CD103E02F
:1041C00000BF00BF012008E0CB6A03F08073B3F1A9
:1041D000807F00D1012000E000BF00BF70470000D9
:1041E0000146087810381823B0FBF3F20848805CC9
:1041F000C865032A05D908686FF30900001D8865A2
:1042000003E008686FF309008865886D7047000057
:10421000E04C000830B5026A056A25F00105056228
:104220004368846924F0700424F003040D682C436F
:1042300022F002028D682A43104DA84200D103E00B
:104240000F4DA84206D100BF22F00802CD682A43D4
:1042500022F00402094DA84202D0094DA84207D11C
:1042600023F4807323F400734D692B438D692B4332
:10427000436084614D684563026230BD00000140C7
:104280000004014030B5026A056A25F480750562B4
:104290004368C46924F0700424F003040D682C43BF
:1042A00022F400728D6842EA0522124DA84200D124
:1042B00003E0114DA84207D100BF22F40062CD688F
:1042C00042EA052222F480620A4DA84202D00A4D39
:1042D000A84209D123F4805323F400534D6943EAE3
:1042E00005138D6943EA05134360C4614D68C563D6
:1042F000026230BD000001400004014030B5036A95
:10430000056A25F4805505624468C26922F4E042DA
:1043100022F440720D6842EA052223F400538D68AE
:1043200043EA0533084DA84202D0084DA84204D103
:1043300024F480444D6944EA85144460C2614D68A8
:104340000564036230BD000000000140000401402C
:104350000A46816821F0700142F007031943816029
:10436000704730B50B461446026A056A25F0010510
:104370000562816921F0F00141EA041122F00A028C
:104380001A438161026230BD30B50B461446026AA1
:10439000056A25F010050562816921F4704141EA42
:1043A000043122F0A00242EA03128161026230BDB0
:1043B00070B506460025B46B20684069C0F3C0158F
:1043C00094F84100212805D125B10020E084204641
:1043D00000F022FA20684069C0F3801594F842008A
:1043E000222805D125B10020E085204600F0DEF925
:1043F000606C40F0100060642046FEF76BF970BD01
:104400002DE9F84F04462068006920F44050E16827
:104410000843216808612169A0680843616908436D
:10442000E169084300902068C06849F20C61884344
:10443000009908432168C8602068406920F44070F2
:10444000A16908432168486176492068884203D001
:1044500075492068884203D1FDF758F8814602E08B
:10446000FDF744F88146E069B0F5004F6CD10220B9
:104470006168A0FB015003461920A9FB00700146AA
:104480002A463846FBF702FF6421B0FBF1F04FEA01
:10449000001A02206168A0FB01510B461920A9FBFC
:1044A00000712A463846FBF7F1FE83460220616818
:1044B000A0FB015003461920A9FB00712A4638468B
:1044C000FBF7E4FE6421B0FBF1F000EBC00101EB6F
:1044D0000010ABEB8000322101EBC0006421B0FB87
:1044E000F1F000F0F8000AEB400A02206168A0FB3E
:1044F000015003461920A9FB007001462A463846A0
:10450000FBF7C4FE834602206168A0FB015003460E
:104510001920A9FB00712A463846FBF7B7FE642133
:10452000B0FBF1F000EBC00101EB0010ABEB800041
:10453000322101EBC0006421B0FBF1F000F0070074
:104540005044216888606AE004206168A0FB015043
:1045500003461920A9FB007001462A463846FBF79E
:1045600095FE824604206168A0FB01500346192095
:10457000A9FB007001462A463846FBF787FE6421F6
:10458000B0FBF1F000EBC00101EB0010AAEB8000E2
:10459000322101EB00106421B0FBF1F000F0F00AD1
:1045A00004206168A0FB017003461920A9FB00519B
:1045B0003A462846FBF76AFE6421B0FBF1F00AEBAD
:1045C000001A04206168A0FB01510B461920A9FBC9
:1045D00000712A463846FBF759FE8346042061687D
:1045E000A0FB015003461920A9FB007001462A4692
:1045F0003846FBF74BFE6421B0FBF1F000EBC00145
:1046000001EB0010ABEB8000322101EB00106421C4
:10461000B0FBF1F000F00F00504421688860BDE865
:10462000F88F00000010014000140140F8B5044666
:1046300094F84200222875D1A068B0F5805F0CD1B3
:10464000206950B90025A66A20684068C0F30800B8
:104650003080A06A801CA06215E0A56A0026A068D0
:10466000B0F5805F03D0A06828B9206918B9206828
:104670004068287004E02068406800F07F002870DF
:10468000A06A401CA062E08D401E80B2E085002838
:1046900046D12068C06820F020002168C8602068EA
:1046A000C06820F480702168C8602068406920F0EC
:1046B000010021684861202084F8420000206063E6
:1046C000206B012826D10020206300BF00BF216895
:1046D0000C3151E8001F21F0100021680C3141E835
:1046E0000002002AF3D100BF2068006800F010002B
:1046F00010280AD100BF00200090206800680090B8
:1047000020684068009000BF00BFA18D2046FDF7E3
:10471000D1FF02E02046FEF7FBFA0020F8BD01E0E1
:104720000020FBE70220F9E7014691F8410021282B
:1047300028D18868B0F5805F0BD1086948B90A6A4A
:104740001088C0F308000B685860086A801C086273
:1047500005E00B6A581C086218780B685860C88C12
:10476000401E80B2C88458B90868C06820F0800034
:104770000B68D8600868C06840F040000B68D860DB
:10478000002070470220FCE770B50546AC6B0120A5
:104790006063206B012805D1A08D41082046FDF7FC
:1047A00089FF02E02046FEF7B4FA70BD00BF00BFEB
:1047B00002680C3252E8002F22F4907102680C3229
:1047C00042E80013002BF3D100BF00BF00BF026816
:1047D000143252E8002F22F001010268143242E83C
:1047E0000013002BF3D100BF016B01290ED100BFD4
:1047F00000BF02680C3252E8002F22F0100102685C
:104800000C3242E80013002BF3D100BF202180F8C6
:10481000421000210163704700BF00BF02680C32E4
:1048200052E8002F22F0C00102680C3242E8001367
:10483000002BF3D100BF202180F84110704770B5E4
:104840000546AC6B2868006800F48070002842D1EF
:10485000E08500BF00BF21680C3151E8001F21F442
:10486000807021680C3141E80002002AF3D100BFBA
:1048700000BF00BF2168143151E8001F21F0010082
:104880002168143141E80002002AF3D100BF00BFC3
:1048900000BF2168143151E8001F21F04000216859
:1048A000143141E80002002AF3D100BF202084F82F
:1048B0004200206B01280ED100BF00BF21680C31DF
:1048C00051E8001F21F0100021680C3141E800027E
:1048D000002AF3D100BF00206063206B012804D1BF
:1048E000A18D2046FDF7E6FE02E02046FEF710FA15
:1048F00070BD10B504462068C06820F040002168F3
:10490000C860202084F841002046FEF703FA00200A
:1049100010BD70B50546AC6B0020E085E0842046F4
:10492000FDF7D8FE70BD000010B5002804DB0A07B3
:10493000130E054A135406E00A07140E034A00F04A
:104940000F031B1FD45410BD00E400E018ED00E07D
:1049500002480068C0F30220704700000CED00E040
:1049600080ED020AC0ED030A80ED041AC0ED051ABD
:1049700080ED062AC0ED072A80ED013AC0ED0D3A20
:1049800080ED084AC0ED094A80ED0A5A80F83810D7
:1049900070472DE9F0411C4617460E00804607D0AF
:1049A000054602E02846B0473D442046641EF9D241
:1049B0004046BDE8F08110B52DED028BF0EE408A47
:1049C00018EE900AB0EE608A20F00040C0F1FF407F
:1049D000C00F07D118EE100A20F00040C0F1FF40D0
:1049E000C00F2BD018EE101A18EE900A00F0FEF847
:1049F00000EE100A10EE100A6FEAD05010F0FF0F10
:104A000004BFBDEC028B10BD18EE900A00F000410F
:104A100010EE100A00F00040814204BFBDEC028B92
:104A200010BD18EE101A10EE100ABDEC028B61F3E7
:104A30001E0000EE900A30EE600A10BD18EE900ADB
:104A40004FF07F41B1EB400F1CBF18EE100A5FEA38
:104A50004000C7D10120FBF7D2FCBDEC028BBDE8C2
:104A6000104000F001B80000DFED020A80EEA00A5D
:104A7000704700000000000010B5134C04239C2276
:104A800012492046FFF785FF04469FED110A80ED8D
:104A90009C0A9FED100A80ED9D0A9FED0F0A80EDA4
:104AA0009E0A9FED0E0A80EDA10A9FED0C0A80ED93
:104AB000A20A9FED0A0A80EDA30A002084F8900262
:104AC000A4F8920210BD0000240900206D3D0008EA
:104AD000CDCCCC3DF628DC3E9A99993E00000000F2
:104AE00008B50448044B054A054900900548FFF7FE
:104AF00018F808BD44020020E939000851390008BF
:104B0000B1390008B80B0020FCF75AFBFEF7B0FEE5
:104B1000FEF76CF9FEF726F9FEF700F9FEF77CFACE
:104B2000FEF7B6FAFEF7F2FAFEF72EFBFEF78EFB63
:104B3000FEF710FCFEF746FCFEF760FCFEF760FB9C
:104B4000FEF7FEF9FEF732FAFEF720FE01E0FEF76F
:104B5000C9FDFCE70EF1020E2EF0030E5EF8044BC9
:104B6000244204D44FEA4102B2F17F4F11D84FEAF8
:104B70004003B3F17F4F0CD80ED14FEAD07CB2F195
:104B80007F4F0CEB4C0C0CF1020C08BF4CEBD17CB2
:104B900004E04FF0080C01E04FEAD17C0CEB4C0331
:104BA00024FA03F404F00704B4F1040C06D20EEB6B
:104BB000840CBDE810404CF0010C6047DFE80CF0BD
:104BC000070802024FF00040A0F5800010BD084623
:104BD000420018BFD2F1807288BF00F0004010BDC3
:104BE0004FF04070E1EE100A704700004FF07F4C2C
:104BF0003CEA410318BF3CEA400200F062804FF4F7
:104C00007F0C10F0004F0CEAD11318BF43F00503DE
:104C10001CEAD01218BF13EA0C0F00F057804FF0B7
:104C2000004C4CEA00204CEA0121A3F580339A4263
:104C300010DDB0F1004F23F0020306D3401A43F019
:104C40000203BCBF404283F001034FEA4000A2F5DB
:104C50008032ECE74FEA224CBCEB234F08DB884262
:104C600006D31CD0A0EB4100C0F1000083F001038B
:104C700040001DD217D40DD0B0FA80FC0CF1010C0D
:104C800000FA0CF0A2EB0C42D2F1000C12DB4FEA5E
:104C9000C37070474FEA437000F00040704713F054
:104CA000020FE5D0DEE7B2F580324FEA4000EBDDDF
:104CB000002AE9DD4FEAC21242EA502040EAC370FE
:104CC000704710B5FFF746FFEDFFFF3E1CEAD11F0E
:104CD00002D000F000407047004870470000C07FDD
:104CE000000610160006101600000000000000006C
:104CF0000102030406070809000000000102030482
:104D0000284D0008000000204C040000C4010008E9
:104D1000484D00084C040020F40E0000000200087A
:104D200059FDFFFFBDFDFFFF51421052010829242C
:104D3000F4004C04002005FFFC06002001FF910553
:084D4000FF4407002001FF9170
:040000050800018965
:00000001FF
