:020000040800F2
:10000000B81200204D020008E92E0008D32800088D
:10001000E52E0008CB040008713100080000000044
:10002000000000000000000000000000EF2E0008AB
:100030003105000800000000ED2E0008F12E000838
:1000400067020008670200086702000867020008EC
:1000500067020008670200086702000867020008DC
:1000600067020008670200086702000867020008CC
:10007000F104000867020008010500086702000893
:1000800067020008670200086702000867020008AC
:10009000D1040008E10400086702000867020008B4
:1000A000670200086702000867020008670200088C
:1000B000670200086702000867020008670200087C
:1000C000670200086702000867020008670200086C
:1000D000670200085131000867020008613100081A
:1000E000670200086702000867020008670200084C
:1000F000670200086702000867020008670200083C
:10010000670200086702000867020008670200082B
:10011000670200086702000867020008670200081B
:10012000670200086702000811050008670200085E
:1001300067020008670200086702000867020008FB
:1001400067020008670200086702000867020008EB
:10015000670200086702000821050008670200081E
:1001600067020008670200086702000867020008CB
:10017000670200086702000867020008000000002C
:10018000670200086702000800F002F800F04EF86D
:100190000AA090E8000C82448344AAF10107DA45E2
:1001A00001D100F043F8AFF2090EBAE80F0013F0E6
:1001B000010F18BFFB1A43F0010318476C3D000004
:1001C0008C3D00000A4410F8014B14F00F0508BFE5
:1001D00010F8015B240908BF10F8014B6D1E05D013
:1001E00010F8013B6D1E01F8013BF9D1641E03D0EC
:1001F000641E01F8015BFBD19142E4D3704700001B
:100200000023002400250026103A28BF78C1FBD81F
:10021000520728BF30C148BF0B6070471FB503F0BD
:10022000EDFD00F007F91FBD10B510BD00F018F985
:100230001146FFF7F3FF03F0C1FD00F036F903B4F8
:10024000FFF7F2FF03BC00F039F9000009488047CE
:1002500009480047FEE7FEE7FEE7FEE7FEE7FEE7A8
:10026000FEE7FEE7FEE7FEE704480549054A064BC0
:1002700070470000F92E000889010008B80C002022
:10028000B8120020B80E0020B80E002053EA020C6D
:1002900000F069802DE9F04B4FF00006002B1FBFE6
:1002A000B3FA83F503FA05F424FA05F65E4012BFAB
:1002B0001643B2FA82F502FA05F4C5F120051EBF15
:1002C00022FA05FC44EA0C04203556EA044C4FEAB5
:1002D000144418BF641C4FF000084FF0000990420E
:1002E00071EB030C39D3002919BFB1FA81F701FA78
:1002F00007F6B0FA80F700FA07F6C7F120071EBF2D
:1003000020FA07FC46EA0C062037B6FBF4FCA7EB04
:100310000507103F07F01F0BCBF120060CFA0BFB73
:100320002CFA06F644BFB3460026202FA4BF5E4633
:100330004FF0000B5BEA060C08BF4FF0010B19EB06
:100340000B09ABFB027C48EB0608C01B06FB02CC8A
:100350000BFB03CC71EB0C01C1E70B460246414697
:100360004846BDE8F08B13B54FF000004FF0000198
:10037000AFF30080BDE81C40704710B5203AC0F0D4
:100380000B80B1E81850203AA0E81850B1E8185096
:10039000A0E81850BFF4F5AF5FEA027C24BFB1E8D3
:1003A0001850A0E8185044BF18C918C0BDE8104044
:1003B0005FEA827C24BF51F8043B40F8043B08BF4D
:1003C0007047D20728BF31F8023B48BF11F8012B14
:1003D00028BF20F8023B48BF00F8012B70474FF0C0
:1003E000000200B5134694469646203922BFA0E885
:1003F0000C50A0E80C50B1F12001BFF4F7AF090791
:1004000028BFA0E80C5048BF0CC05DF804EB890081
:1004100028BF40F8042B08BF704748BF20F8022BC4
:1004200011F0804F18BF00F8012B704770477047DC
:100430007047000070B5064C7C44064D7D4403E0D7
:10044000206820448047241DAC42F9D170BD0000D3
:100450000C3B0000103B000000487047540C00208B
:100460007546FFF7F9FFAE4605006946534620F092
:100470000700854618B020B5FFF7F6FEBDE820401E
:100480004FF000064FF000074FF000084FF0000B50
:1004900021F00701AC46ACE8C009ACE8C009ACE803
:1004A000C009ACE8C0098D46704710B50446AFF3EB
:1004B00000802046BDE81040FFF7C1BE014918206A
:1004C000ABBEFEE726000200704700BFFEE700005B
:1004D00010B5024800F031F810BD000020040020E3
:1004E00010B5024800F029F810BD000020040020DB
:1004F00010B5024800F0CCFA10BD0000D80700206B
:1005000010B5024800F0C4FA10BD00003808002001
:1005100010B5024800F0BCFA10BD0000180700201A
:1005200010B5024800F0B4FA10BD000078070020B2
:10053000704772B600BFFEE770472DE9F05F0446D2
:100540000025206846692068D0F8049020688768F4
:100550002068D0F80CA02068D0F810B02068D0F83F
:10056000188006F00100002855D007F00100C0B146
:1005700001202168886007F0020018B1204600F0D1
:1005800017FA0EE007F0040010B145F4006508E02A
:1005900007F0080010B145F4805502E0204600F055
:1005A00006FA07F48070C8B14FF480702168886043
:1005B00007F4007018B1204600F0FCF90EE007F4D3
:1005C000806010B145F4005508E007F4006010B1F8
:1005D00045F4804502E0204600F0EBF907F4803056
:1005E000C8B14FF480302168886007F4003018B13A
:1005F000204600F0E1F90EE007F4802010B145F448
:10060000004508E007F4002010B145F4803502E011
:10061000204600F0D0F906F0080038B10AF01000CA
:1006200020B145F4007510202168C86006F0040070
:1006300040B10AF0080028B108202168C8602046AF
:1006400000F0B0F906F0020038B12068C06800F090
:10065000030010B1204600F0A6F906F0400038B1C2
:100660000BF0100020B145F480651020216808616E
:1006700006F0200040B10BF0080028B108202168E6
:100680000861204600F090F906F0100038B12068AB
:10069000006900F0030010B1204600F086F906F46E
:1006A000003040B109F0100028B1102021684860E6
:1006B000204600F07BF906F4803040B109F00800D4
:1006C00028B1082021684860204600F076F906F439
:1006D000004088B309F0040078B306F4807020B1BC
:1006E00008F0010008B145F0010506F4007020B1E2
:1006F00008F0020008B145F0020506F4806020B160
:1007000008F0040008B145F0040506F40060A0B14B
:1007100008F0700088B108F07000402817D006DC9F
:1007200010280BD020280CD0302819D10CE05028EC
:1007300010D0602814D110E01DE019E045F0080544
:100740000FE045F010050CE045F0200509E045F00C
:10075000400506E045F0800503E045F4807500E0C3
:1007600000BF00BF2068806920F0700021688861A8
:100770000420216848602DB1606A284360622046E9
:10078000FFF7DAFEBDE8F09F70B504460CB9012012
:1007900070BD94F8200010B9204600F0AFF8206832
:1007A000006840F001002168086000F04BFC05463D
:1007B0000DE000F047FC401B0A2808D9606A40F4AD
:1007C00000306062052084F820000120E0E7206806
:1007D000406800F001000028EBD02068006820F09D
:1007E00002002168086000F02DFC05460DE000F0D5
:1007F00029FC401B0A2808D9606A40F40030606276
:10080000052084F820000120C2E72068406800F03D
:1008100002000028EBD1207E012806D12068006864
:1008200040F080002168086005E02068006820F042
:10083000800021680860607E012806D12068006879
:1008400040F040002168086005E02068006820F062
:10085000400021680860A07E012806D12068006859
:1008600040F020002168086005E02068006820F062
:10087000200021680860E07E012806D12068006819
:1008800020F010002168086005E02068006840F052
:10089000100021680860207F012806D120680068C8
:1008A00040F008002168086005E02068006820F03A
:1008B000080021680860607F012806D12068006870
:1008C00040F004002168086005E02068006820F01E
:1008D000040021680860D4E9020108432169084343
:1008E000616908436168491E08432168C8610020A6
:1008F0006062012084F82000002049E710B586B02E
:100900000446142101A8FFF76AFD234920688842A4
:1009100040D100BF002000902048006840F00070E7
:100920001E4908600846006800F00070009000BF93
:1009300000BF00BF0020009018481038006840F049
:1009400001001649103908600846006800F00100EF
:10095000009000BF00BF4FF4C050019002200290F1
:1009600000200390032004900920059001A90C4861
:1009700000F06EFA00221146142000F0F1FB142062
:1009800000F0DAFB00221146152000F0E9FB1520EB
:1009900000F0D2FB06B010BD0064004040380240B9
:1009A00000000240704770477047704770477047BB
:1009B00070477047704770477047704770B504467E
:1009C000A56D00F03FFB064694F83500022808D0DC
:1009D0008020606500BF002084F8340000BF012043
:1009E00070BD2068006820F016002168086020684B
:1009F000406920F0800021684861206C08B9A06C33
:100A000028B12068006820F008002168086020688C
:100A1000006820F001002168086010E000F012FB7F
:100A2000801B05280BD920206065032084F8350041
:100A300000BF002084F8340000BF0320D0E7206806
:100A4000006800F001000028E8D194F85C103F2015
:100A50008840A860012084F8350000BF002084F899
:100A6000340000BF00BFBBE7014691F83500022803
:100A700003D08020486501207047052081F83500AB
:100A80000868006820F001000A6810600020F3E7A1
:100A9000F8B50446002000908C4800684FF41651C9
:100AA000B0FBF1F7A56D2E6894F85C100820884023
:100AB000304098B12068006800F0040070B12068F0
:100AC000006820F004002168086094F85C10082099
:100AD0008840A860606D40F00100606594F85C108B
:100AE00001208840304068B12068406900F08000F3
:100AF00040B194F85C1001208840A860606D40F01F
:100B00000200606594F85C1004208840304068B1B1
:100B10002068006800F0020040B194F85C100420E6
:100B20008840A860606D40F00400606594F85C1037
:100B300010208840304078B32068006800F008003A
:100B400050B394F85C1010208840A86020680068BA
:100B500000F4802080B12068006800F4002028B9EB
:100B6000206CC8B12046216C884715E0A06C98B174
:100B70002046A16C88470FE02068006800F4807070
:100B800028B92068006820F0080021680860206CFF
:100B900010B12046216C884794F85C1020208840D2
:100BA0003040002865D02068006800F01000002860
:100BB0005FD094F85C1020208840A86094F835003D
:100BC000052828D12068006820F0160021680860F8
:100BD0002068406920F0800021684861206C08B9D5
:100BE000A06C28B12068006820F008002168086027
:100BF00094F85C103F208840A860012084F83500FC
:100C000000BF002084F8340000BF206D10B12046E2
:100C1000216D8847F8BD2068006800F4802080B10D
:100C20002068006800F4002028B9606C10B12046EC
:100C3000616C88471DE0E06BD8B12046E16B8847C6
:100C400017E02068006800F4807068B920680068C8
:100C500020F0100021680860012084F8350000BFF2
:100C6000002084F8340000BFE06B10B12046E16B37
:100C70008847606D38B3606D00F00100F0B1052069
:100C800084F835002068006820F0010021680860C1
:100C900000BF0098401C0090B84200D905E02068D1
:100CA000006800F001000028F3D100BF012084F8A3
:100CB000350000BF002084F8340000BFE06C10B1A4
:100CC0002046E16C884700BFA4E700000C0000202C
:100CD0002DE9F0410446002500F0B4F9074614B9A7
:100CE0000120BDE8F081606A00B100BF022084F8F5
:100CF000350000BF002084F8340000BF2068006881
:100D000020F00100216808600AE000F09BF9C01B98
:100D1000052805D920206065032084F83500E0E728
:100D20002068006800F001000028EED12068056806
:100D300021480540D4E901010843E16808432169DD
:100D4000084361690843A1690843E1690843216ACE
:100D500008430543606A042803D1D4E90B01084322
:100D60000543206805602068456925F00705606A2D
:100D70000543606A04280DD1A06A0543E06A48B1C2
:100D8000204602F0ADFB28B140206065012084F8C8
:100D90003500A6E720684561204602F0F7FB0646CD
:100DA00094F85C103F208840B0600020606501200E
:100DB00084F83500002094E73F8010F02DE9F047DB
:100DC00004460D4616461F464FF00008D4F85890CA
:100DD00000BF94F83400012802D10220BDE8F0875A
:100DE000012084F8340000BF94F83500012825D193
:100DF000022084F83500002060653B4632462946D3
:100E0000204602F057FB94F85C103F208840C9F858
:100E100008002068006840F0160021680860206C17
:100E200028B12068006840F0080021680860206848
:100E3000006840F001002168086006E000BF002063
:100E400084F8340000BF4FF002084046C6E70000B7
:100E5000F8B502460B460025002400200021D6E00C
:100E6000012606FA01F51E6806EA0504AC4274D1B3
:100E70001E7906F00306012E04D01E7906F0030643
:100E8000022E13D190684F000326BE40B0434F009E
:100E9000DE68BE4030439060506801268E40B0430B
:100EA0001E79C6F300168E40304350601E7906F05E
:100EB0000306032E09D0D0684F000326BE40B0437E
:100EC0004F009E68BE403043D0601E7906F0030696
:100ED000022E13D1CF0802F1200656F827004E0744
:100EE000F70E0F26BE40B0434F07FF0E1E69BE40EF
:100EF0003043CF0802F1200646F8270010684F0063
:100F00000326BE40B0431E7906F003064F00BE40E4
:100F1000304310605E6806F44036002E76D000BF85
:100F2000002600963C4E366846F480463A4F3E60B6
:100F30003E46366806F48046009600BF00BF374E36
:100F40008F0856F827008E07370F0F26BE40B04394
:100F5000334EB24202D1002624E057E0314EB24275
:100F600001D101261EE0304EB24201D1022619E025
:100F70002E4EB24201D1032614E02D4EB24201D1D1
:100F800004260FE02B4EB24201D105260AE02A4E7C
:100F9000B24201D1062605E0284EB24201D1072611
:100FA00000E008268F073F0FBE4030431B4E8F08DE
:100FB00046F82700224E3068A0435E6806F480168B
:100FC00006B120431E4E3060361D3068A0435E6877
:100FD00006F4001606B12043194E361D3060184E37
:100FE000361F3068A0435E6806F4003606B1204321
:100FF000134E361F3060361F3068A0435E6806F41B
:10100000803606B120430E4E083E3060491C102940
:10101000FFF426AFF8BD0000443802400838014014
:10102000000002400004024000080240000C0240A0
:10103000001002400014024000180240001C024050
:10104000083C014001480068704700000000002093
:10105000034800680349097808440149086070475B
:10106000000000200800002010B50D48006840F482
:1010700000700B4908600846006840F48060086012
:101080000846006840F480700860032000F0A6F86D
:101090000F2000F007F800F02BF8002010BD000032
:1010A000003C024070B504460E4800784FF47A7157
:1010B000B1FBF0F00C490968B1FBF0F5284600F0EF
:1010C0002FFC08B1012070BD102C07D20022214650
:1010D000501E00F045F80548046001E00120F2E7E9
:1010E0000020F0E7080000200C0000200400002091
:1010F00008B500BF002000900E48006840F4804012
:101100000C4908600846006800F48040009000BF69
:1011100000BF00BF00200090081F006840F0805012
:10112000091F08600846006800F08050009000BF6A
:1011300000BF08BD443802400146084600280DDBC8
:1011400000BF00BF00F01F0301229A4043099B002B
:1011500003F1E023C3F8002100BF00BF00BF7047C8
:101160002DE9F05F80460D461646002702F0C6FDC9
:10117000074639462A46334601F00700C0F1070A00
:10118000BAF1040F02D94FF0040A01E0C0F1070AD6
:10119000D14600F1040ABAF1070F02D24FF0000A5B
:1011A00001E0A0F1030AD4464FF0010A0AFA09FA55
:1011B000AAF1010A0AEA020A0AFA0CFA4FF0010B34
:1011C0000BFA0CFBABF1010B0BEA030B4AEA0B0425
:1011D0002146404602F07EFDBDE8F09F00BF00F0D2
:1011E0000702064B19684FF6FF031940044B0B43E7
:1011F00043EA0221014B196000BF70470CED00E08B
:101200000000FA0570B504460D460CB9012070BD0A
:101210005848006800F00700A84209D255490D70EF
:101220000846006800F00700A84201D00120EEE760
:10123000207800F0020002281DD1207800F0040080
:10124000042805D14C48006840F4E0504A49086041
:10125000207800F00800082805D14748006840F4CD
:101260006040454908604448006820F0F000A168EB
:10127000084341490860207800F00100A8B3606885
:10128000012807D13C4808380068C0F34040B8B98D
:101290000120BCE76068022802D06068032807D1FB
:1012A000354808380068C0F3406048B90120AEE70F
:1012B000314808380068C0F3400008B90120A6E7AB
:1012C0002D48006820F00300616808432A4908603F
:1012D000FFF7B8FE064609E0FFF7B4FE801B41F2B7
:1012E0008831884202D9032091E707E0224800684C
:1012F00000F00C006168B0EB810FEDD11D48006873
:1013000000F00700A84209D91A490D700846006884
:1013100000F00700A84201D0012078E7207800F013
:101320000400042807D11448006820F4E050E16864
:10133000084311490860207800F00800082808D107
:101340000D48006820F46040216940EAC1000A4964
:10135000086000F03FF808490968C1F30311074A23
:10136000515CC8400649086006480068FFF79AFECD
:1013700000204CE7003C0240083802400E3E0008C6
:101380000C000020040000200148006870470000A5
:101390000C00002000B5FFF7F7FF04490968C1F30E
:1013A0008221034A515CC84000BD00000838024059
:1013B0001E3E000800B5FFF7E7FF04490968C1F3C6
:1013C0004231034A515CC84000BD00000838024069
:1013D0001E3E00082DE9F047002400250026A14606
:1013E0002548006800F00C0020B1042805D008282A
:1013F0003AD105E0DFF8849039E0DFF8849036E0F8
:101400001D48001F006800F03F041B48001F0068D3
:1014100000F4800078B11A481749091F0968C1F320
:101420008811A0FB01700146224600233846FEF7D2
:101430002DFF05460EE011480F49091F0968C1F349
:101440008811A0FB01700146224600233846FEF7B2
:101450001DFF05460848001F0068C0F30140401CFE
:101460004600B5FBF6F902E0DFF8109000BF00BFC0
:101470004846BDE8F0870000083802400024F40028
:1014800040787D01F8B504460CB90120F8BD2078FC
:1014900000F00100002874D0F948006800F00C004A
:1014A00004280DD0F648006800F00C00082813D17D
:1014B000F348001F006800F48000B0F5800F0BD1E6
:1014C000EF4808380068C0F34040002859D06068F1
:1014D000002856D10120D9E700BF6068B0F5803FF1
:1014E00008D1E7480838006840F48030E4490839FA
:1014F00008601EE06068B0F5A02F0DD1E048083804
:10150000006840F48020DE49083908600846006819
:1015100040F4803008600CE0D9480838006820F4B6
:101520008030D749083908600846006820F48020D8
:10153000086000BF606890B1FFF784FD054606E0D3
:10154000FFF780FD401B642801D903209EE7CC48AB
:1015500008380068C0F340400028F1D011E0FFF7E0
:1015600071FD054606E0FFF76DFD401B642801D9BB
:1015700003208BE7C24808380068C0F340400028C9
:10158000F1D1207800F0020002285FD1BC48006849
:1015900000F00C0058B1BA48006800F00C000828B0
:1015A0001CD1B748001F006800F48000B0B9B448EF
:1015B00008380068C0F3400020B1E068012801D07D
:1015C000012063E7AE480838006820F0F800216980
:1015D00040EAC100AA490839086037E0E06800B372
:1015E0000120A8490860FFF72DFD054606E0FFF73A
:1015F00029FD401B022801D9032047E7A0480838ED
:101600000068C0F340000028F1D09D480838006809
:1016100020F0F800216940EAC100994908390860C2
:1016200014E0002097490860FFF70CFD054606E02E
:10163000FFF708FD401B022801D9032026E7904848
:1016400008380068C0F340000028F1D1207800F08D
:10165000080008282CD16069A8B101208A490860D7
:10166000FFF7F0FC054606E0FFF7ECFC401B022804
:1016700001D903200AE782486C300068C0F34000BB
:101680000028F1D014E000207F490860FFF7DAFC61
:10169000054606E0FFF7D6FC401B022801D90320CF
:1016A000F4E677486C300068C0F340000028F1D1C0
:1016B000207800F00400042870D1002770483830EA
:1016C000006800F0805090B900BF002000906C4886
:1016D0003830006840F08050694938310860084669
:1016E000006800F08050009000BF00BF01276748ED
:1016F000006800F48070B0B96448006840F48070FD
:1017000062490860FFF79EFC054606E0FFF79AFC79
:10171000401B022801D90320B8E65C48006800F4A9
:1017200080700028F2D000BFA068012808D154487A
:101730006830006840F001005149683108601DE0E0
:10174000A06805280DD14E486830006840F00400BC
:101750004B49683108600846006840F001000860A5
:101760000CE047486830006820F0010044496831C7
:1017700008600846006820F00400086000BFA06808
:10178000A8B1FFF75FFC054609E0FFF75BFC401BD3
:1017900041F28831884202D9032077E626E03848B2
:1017A00068300068C0F340000028EED013E0FFF777
:1017B00049FC054608E0FFF745FC401B41F2883133
:1017C000884201D9032061E62D4868300068C0F3E3
:1017D00040000028EFD1012F07D129483830006898
:1017E00020F0805026493831086000BFA0690028E9
:1017F00045D02348006800F00C0008285DD0A0699F
:10180000022845D100201F490866FFF71BFC05464A
:1018100006E0FFF717FC401B022801D9032035E63C
:10182000174808380068C0F340600028F1D1D4E9B7
:1018300007010843616A40EA81110122A06AC2EBF4
:10184000500041EA00412C20005D41EA00600C4953
:10185000091F086001200B490866FFF7F3FB0546E6
:1018600006E0FFF7EFFB401B022801D903200DE63D
:10187000034808380068C0F340600028F1D049E010
:101880000838024000004742800E47420070004086
:10189000002021490866FFF7D5FB054606E0FFF763
:1018A000D1FB401B022801D90320EFE51B4800684B
:1018B000C0F340600028F2D12CE0A069012800D1DB
:1018C000E4E51648001D0668A069012820D006F44A
:1018D0008001E06981421BD106F03F01206A81420C
:1018E00016D147F6C0703040616AB0EB811F0FD14E
:1018F00006F440310122A06AC2EB5000B1EB004F68
:1019000006D106F070612C20005DB1EB006F01D0B4
:101910000120BBE50020B9E5000047420038024045
:1019200070B504462546681EB0F1807F01D30120C2
:101930000FE0681E4FF0E02148610F214FF0FF30AB
:1019400002F0C8F900204FF0E0218861072008610B
:10195000002070BD10B50346002200BF93F83C0084
:10196000012801D1022010BD012083F83C0000BFF6
:1019700022F0FF00CC6840EA040222F440708C6838
:1019800040EA040222F480604C6840EA040222F437
:1019900000600C6840EA040222F480500C6940EABE
:1019A000040222F400504C6940EA040222F4804010
:1019B000CC6940EA04021868426400BF002083F842
:1019C0003C0000BF00BFCEE730B502460B4600BF6B
:1019D00092F83C00012801D1022030BD012082F89C
:1019E0003C0000BF022082F83D0010684468106887
:1019F000816824F070041868044310684460184D2E
:101A00001068A8421BD01068B0F1804F17D0154D58
:101A10001068A84213D0144D1068A8420FD0134D7F
:101A20001068A8420BD0124D1068A84207D0114D83
:101A30001068A84203D0104D1068A84205D121F0CB
:101A400080015868014310688160012082F83D00E0
:101A500000BF002082F83C0000BF00BFBDE70000CF
:101A6000000001400004004000080040000C00405D
:101A700000040140004001400018004010B5044639
:101A80000CB9012010BD94F83D0028B9002084F85D
:101A90003C00204600F026F8022084F83D00211D7D
:101AA000206801F033FA012084F8460000BF84F872
:101AB0003E0001213F2001554020015541200155A4
:101AC00000BF00BF012084F842004320015544209C
:101AD00001554520015500BF012084F83D0000203C
:101AE000D0E7000008B5154A016891420FD100BF48
:101AF000002100911249096841F01001104A11605B
:101B00001146096801F01001009100BF15E00D4A6F
:101B10000168914211D100BF002100910849091DBF
:101B2000096841F00201064A121D11601146096858
:101B300001F00201009100BF00BF08BD001000408D
:101B400040380240000401402DE9F04104460D46B2
:101B5000002700BF94F83C00012802D10220BDE814
:101B6000F081012084F83C0000BF022084F83D0091
:101B70002068866826F0770626F47F46206886600F
:101B80002868502833D00CDC202850D004DC0028F2
:101B90004BD0102851D149E0302849D040284CD1B1
:101BA00039E060282DD0702807D0B0F5805F03D0D1
:101BB000B0F5005F41D10DE041E0D5E902136A685C
:101BC000206801F017FA2068866846F077062068DA
:101BD000866034E0D5E902136A68206801F00AFAE9
:101BE0002068806840F480402168886027E0EA68C7
:101BF0006968206801F08BFD5021206801F07EFDAE
:101C00001DE0EA686968206801F094FD60212068A1
:101C100001F074FD13E0EA686968206801F077FD5F
:101C20004021206801F06AFD09E000BF00BF00BF4D
:101C30002968206801F062FD01E0012700BF00BFB4
:101C4000012084F83D0000BF002084F83C0000BF64
:101C5000384684E72DE9F04104460D4614B90120C9
:101C6000BDE8F08194F83D0028B9002084F83C00DC
:101C7000204600F053F8022084F83D002068806878
:101C800044F20701884321688860211D206801F023
:101C90003DF92068D0F80880206886692068076AC6
:101CA000286840EA080840F203308643A969A8681A
:101CB00040EA0120064340F60C4086434FF2F00014
:101CC0008643E969E86840EA012006432869000183
:101CD000296A40EA0130064327F0220727F08807E7
:101CE0006969686840EA011007432068C0F8088005
:101CF0002068866120680762012084F8460084F825
:101D00003E0001213F200155012084F8420043207C
:101D10000155012084F83D000020A1E710B586B0F0
:101D20000446142101A8FEF75AFB2068B0F1804F49
:101D30004BD100BF002000907348006840F00100C4
:101D4000714908600846006800F00100009000BF7B
:101D500000BF00BF002000906B481038006840F0C2
:101D600001006949103908600846006800F0010068
:101D7000009000BF00BF00BF002000900846006830
:101D800040F0020008600846006800F00200009081
:101D900000BF00BF2020019002200290002003908D
:101DA00004900120059001A95848FFF751F8082038
:101DB00001900220029000200390049001200590E1
:101DC00001A95348FFF744F89BE052492068884234
:101DD0002FD100BF002000904B48006840F0020067
:101DE000494908600846006800F00200009000BF02
:101DF00000BF00BF0020009043481038006840F04A
:101E000001004149103908600846006800F00100EF
:101E1000009000BF00BFC02001900220029000206F
:101E2000039004900220059001A93848FFF710F8AC
:101E300067E039492068884230D100BF0020009017
:101E40003148006840F004002F49086008460068E7
:101E500000F00400009000BF00BF00BF0020009011
:101E600029481038006840F00800274910390860F8
:101E70000846006800F00800009000BF00BF4FF463
:101E80004050019002200290002003900490022014
:101E9000059001A92148FEF7DBFF32E020492068C8
:101EA00088422ED100BF002000901748006840F003
:101EB0000800154908600846006800F00800009016
:101EC00000BF00BF00BF002000900F48103800681E
:101ED00040F001000C49103908600846006800F025
:101EE0000100009000BF00BF03200190022002907B
:101EF0000020039004900220059001A90348FEF7FA
:101F0000A7FF06B010BD00004038024000000240AC
:101F1000000402400004004000080040000C0240A1
:101F2000000C004010B586B00446142101A8FEF74D
:101F300056FA3449206888421ED100BF0020009024
:101F40003148006840F004002F49086008460068E6
:101F500000F00400009000BF00BF4FF470700190CB
:101F6000022002900020039004900320059001A914
:101F70002648FEF76DFF43E02549206888421DD1C1
:101F800000BF002000902048006840F010001E496B
:101F900008600846006800F01000009000BF00BF15
:101FA0002020019002200290002003900490032042
:101FB000059001A91748FEF74BFF21E0164920685C
:101FC00088421DD100BF002000900F48006840F0FB
:101FD00002000D4908600846006800F00200009009
:101FE00000BF00BF4FF4404001900220029000204B
:101FF000039004900920059001A90848FEF728FFE6
:1020000006B010BD00040140303802400008024014
:10201000004001400010024000180040000402404F
:102020002DE9F04104460D461646002700BF94F8FE
:102030003C00012802D10220BDE8F081012084F893
:102040003C0000BF36B1042E1BD0082E31D00C2E20
:102050005ED145E02946206801F0B2FA2068806927
:1020600040F00800216888612068806920F0040041
:10207000216888612068806929690843216888612E
:1020800048E02946206800F0C1FF2068806940F4DC
:102090000060216888612068806920F48060216880
:1020A000886120688069296940EA01202168886187
:1020B00030E02946206801F0BBFA2068C06940F092
:1020C00008002168C8612068C06920F00400216808
:1020D000C8612068C069296908432168C86119E09E
:1020E0002946206801F0E0FA2068C06940F40060E9
:1020F0002168C8612068C06920F480602168C861D7
:102100002068C069296940EA01202168C86101E0AE
:10211000012700BF00BF00BF002084F83C0000BFC3
:10212000384689E710B504460CB9012010BD94F873
:102130003D0028B9002084F83C00204600F026F835
:10214000022084F83D00211D206800F0DFFE012000
:1021500084F8460000BF84F83E0001213F2001556D
:10216000402001554120015500BF00BF012084F8E7
:10217000420043200155442001554520015500BF30
:10218000012084F83D000020D0E7000008B5154A82
:10219000016891420FD100BF0021009112490968E6
:1021A00041F48031104A11601146096801F4803110
:1021B000009100BF15E00D4A0168914211D100BFA6
:1021C000002100910849091F096841F04001064AB1
:1021D000121F11601146096801F04001009100BF13
:1021E00000BF08BD004001404438024000180040D4
:1021F000F8B504460E46174694F8420020282ED122
:1022000006B10FB90120F8BD0120206300206063F2
:102210003A463146204600F037FF0546EDB9206BBF
:10222000012819D100BF00200090206800680090AC
:1022300020684068009000BF00BF00BF00BF216859
:102240000C3151E8001F41F0100021680C3141E8C9
:102250000002002AF3D100E001252846D3E702203E
:10226000D1E7000070B504460D46064920680968AC
:10227000884206D1E9B2044801F050F8034800F062
:10228000E3FF70BDD00600202C0B002018020020B8
:1022900038B50446204600F04FF800F0010050B178
:1022A00000BF00200090206800680090206840680F
:1022B000009000BF32E0204600F03EF800F002003F
:1022C00050B100BF00200090206800680090206896
:1022D0004068009000BF21E0204600F02DF800F09B
:1022E000040050B100BF00200090206800680090FA
:1022F00020684068009000BF10E0204600F01CF805
:1023000000F0080050B100BF002000902068006875
:10231000009020684068009000BF00BF044920681A
:102320000968884202D1034800F08EFF38BD0000E2
:10233000D0060020180200200146486C70470000BB
:102340002DE9F84F0446206805682068C6682068B3
:1023500047694FF00009CA4605F00F09B9F1000FAF
:102360000AD105F0200038B106F0200020B1204647
:1023700001F032FBBDE8F88FB9F1000F7CD007F017
:10238000010018B906F49070002875D005F001001E
:1023900030B106F4807018B1606C40F001006064E8
:1023A00005F0040030B107F0010018B1606C40F096
:1023B0000200606405F0020030B107F0010018B1BE
:1023C000606C40F00400606405F0080048B106F05D
:1023D000200010B907F0010018B1606C40F008004F
:1023E0006064606C002846D005F0200028B106F03B
:1023F000200010B1204601F0EFFA20684069C0F3D8
:10240000801A606C00F0080010B9BAF1000F2DD0EE
:10241000204601F0A1FB2068406900F04000402800
:1024200020D100BF00BF2168143151E8001F21F006
:1024300040002168143141E80002002AF3D100BFB6
:10244000E06B50B17748E16B0865E06BFEF70CFB81
:1024500088B1E06B016D88470DE02046FFF718FF5B
:1024600009E009E02046FFF713FF04E02046FFF7EC
:102470000FFF002060647DE7206B012878D105F014
:102480001000002874D006F010000028FAD000BF19
:10249000002000902068006800902068406800904C
:1024A00000BF00BF2068406900F04000402860D1B4
:1024B000E06B006840681FFA80F8B8F1000F56D052
:1024C000A08D404553DDA4F82E80E06BC069B0F5C7
:1024D000807F43D000BF00BF21680C3151E8001F4E
:1024E00021F4807021680C3141E80002002AF3D108
:1024F00000BF00BF00BF2168143151E8001F21F068
:1025000001002168143141E80002002AF3D100BF24
:1025100000BF00BF2168143151E8001F21F04000C6
:102520002168143141E80002002AF3D100BF2020C5
:1025300084F842000020206300BF00BF21680C31F6
:1025400051E8001F21F0100021680C3141E8000221
:10255000002AF3D100BFE06BFEF730FA022060637F
:10256000A08DE28D801A81B22046FFF77BFE01E745
:1025700042E0A08DE18D401A1FFA80F8E08DD0B3C3
:10258000B8F1000F37D000BF00BF21680C3151E80F
:10259000001F21F4907021680C3141E80002002AEC
:1025A000F3D100BF00BF00BF2168143151E8001F04
:1025B00021F001002168143141E80002002AF3D122
:1025C00000BF202084F842000020206300BF00BF2D
:1025D00021680C3151E8001F21F0100021680C31F6
:1025E00041E80002002AF3D100BF022060634146A7
:1025F0002046FFF737FEBDE605F0800030B106F05B
:10260000800018B1204601F065FAB3E605F04000FD
:1026100030B106F0400018B1204601F040FBA9E6B9
:1026200000BFA7E6BF3C000810B504460CB9012066
:1026300010BDA06900B100E000BF94F8410028B9C6
:10264000002084F84000204600F02AF8242084F876
:1026500041002068C06820F400502168C86020460E
:1026600001F0A4F82068006920F490402168086116
:102670002068406920F02A00216848612068C0680D
:1026800040F400502168C86000206064202084F875
:10269000410084F842000020606300BFC8E70000EA
:1026A00010B586B00446142101A8FDF798FE7C49B8
:1026B0002068884276D100BF0020009079480068E9
:1026C00040F01000774908600846006800F01000EC
:1026D000009000BF00BF00BF002000907148143878
:1026E000006840F001006F4914390860084600682E
:1026F00000F00100009000BF00BF4FF4C0600190E7
:1027000002200290002003900320049007200590EF
:1027100001A96548FEF79CFB6448654908604FF0D5
:1027200000604860002162488160C1604FF48061B0
:102730000161002141618161C16101624162FEF775
:10274000C7FA08B1FDF7F5FE00BF5948E06384639E
:1027500000BF56487830574908604FF00060486025
:102760004021544881600021C1604FF480610161C3
:10277000002141618161C16101624162FEF7A8FAF5
:1027800008B1FDF7D6FE00BF4A48A063846300BFCE
:10279000002211462520FEF7E3FC2520FEF7CCFCA5
:1027A0007BE0FFE744492068884276D100BF0020E3
:1027B00000903C48001F006840F480203949091F00
:1027C00008600846006800F48020009000BF00BF49
:1027D00000BF0020009033481438006840F0020029
:1027E0003049143908600846006800F00200009083
:1027F00000BF00BF4FF44060019002200290002013
:102800000390032004900720059001A92B48FEF7B0
:102810001FFB2B482B4908604FF0006048600021E7
:1028200028488160C1604FF48061016100214161ED
:102830008161C16101624162FEF74AFA08B1FDF7A8
:1028400078FE00BF1F48E063846300BF1C4830303F
:102850001D4908604FF00060486040211A488160BF
:102860000021C1604FF480610161002141618161FB
:10287000C16101624162FEF72BFA08B1FDF759FE12
:1028800000BF1148A063846300BF002211462720C7
:10289000FEF766FC2720FEF74FFC06B010BD0000D7
:1028A00000100140443802400000024040640240F1
:1028B000180700207807002000480040000402406C
:1028C00028600240D8070020380800207047704771
:1028D000704700BFFEE7000010B50F480F490860C1
:1028E0000220486000210D488160C1604FF46021E2
:1028F00001614FF48001416100210176012141769F
:1029000000218176C17601774177FDF73DFF08B15F
:10291000FDF70FFE10BD0000006400402004002001
:1029200008B500BF002000901E48006840F48000F9
:102930001C4908600846006800F48000009000BF51
:1029400000BF00BF002000900846006840F400105F
:1029500008600846006800F40010009000BF00BF47
:10296000002211460C20FEF7FBFB0C20FEF7E4FBD7
:10297000002211460E20FEF7F3FB0E20FEF7DCFBD3
:10298000002211463A20FEF7EBFB3A20FEF7D4FB7B
:10299000002211464620FEF7E3FB4620FEF7CCFB63
:1029A00008BD00003038024008B500BF002000908C
:1029B0002C48006840F010002A490860084600686A
:1029C00000F01000009000BF00BF00BF002000908A
:1029D0000846006840F0800008600846006800F083
:1029E0008000009000BF00BF00BF0020009008469C
:1029F000006840F0010008600846006800F001002F
:102A0000009000BF00BF00BF002000900846006893
:102A100040F0020008600846006800F002000090E4
:102A200000BF00BF00BF002000900846006840F0D3
:102A3000080008600846006800F00800009000BF29
:102A400000BF00BF002000900846006840F004006E
:102A500008600846006800F00400009000BF00BF56
:102A600008BD00003038024000B587B01C21684620
:102A7000FDF7B5FC1648174908605320486000214F
:102A80001448816044F61F61C160002101618161C9
:102A9000FFF748FB08B1FDF74CFD602000900020D7
:102AA000019002900490002269460A48FFF7B8FAA4
:102AB00008B1FDF73EFD042269460648FFF7B0FA6B
:102AC00008B1FDF736FD0348FFF72CFA07B000BD4B
:102AD000001800404006002000B58BB0242102A859
:102AE000FDF77DFC0020009001904FF080401749D9
:102AF000086000204860002114488160491EC160C0
:102B000000210161816103200290002003900120D7
:102B10000490002005900690079001200890002066
:102B200009900A9002A90948FFF794F808B1FDF747
:102B300000FD00200090019069460448FEF744FF24
:102B400008B1FDF7F6FC0BB000BD00004804002002
:102B500000B58BB0242102A8FDF741FC00200090B5
:102B60000190184818490860002048600021164864
:102B700081604FF6FF71C160002101618161032016
:102B80000290002003900120049000200590069000
:102B9000079001200890002009900A9002A90A4895
:102BA000FFF758F808B1FDF7C4FC00200090019031
:102BB00069460548FEF708FF08B1FDF7BAFC0BB0FF
:102BC00000BD0000000400409004002000B58BB060
:102BD000242102A8FDF703FC002000900190184872
:102BE00018490860002048600021164881604FF6AF
:102BF000FF71C1600021016181610320029000200A
:102C00000390012004900020059006900790012079
:102C10000890002009900A9002A90A48FFF71AF8C4
:102C200008B1FDF786FC0020009001906946054838
:102C3000FEF7CAFE08B1FDF77CFC0BB000BD00003A
:102C400000080040D804002000B58BB0242102A861
:102C5000FDF7C5FB00200090019017481749086058
:102C600000204860002115488160491EC160002194
:102C700001618161032002900020039001200490F3
:102C800000200590069007900120089000200990F0
:102C90000A9002A90948FEF7DDFF08B1FDF749FCDB
:102CA00000200090019069460448FEF78DFE08B1AF
:102CB000FDF73FFC0BB000BD000C004020050020DC
:102CC0001CB50020009001900E480F490860532069
:102CD000486000210C48816040F2E731C16000216A
:102CE0008161FEF7CBFE08B1FDF723FC00200090C8
:102CF000019069460448FEF767FE08B1FDF719FC2C
:102D00001CBD0000001000406805002000B595B013
:102D1000002011901290139014900F9010901C218D
:102D200008A8FDF75CFB20216846FDF758FB3748F3
:102D3000374908600020486000213548816042F230
:102D4000CF01C1600021016141618161FEF796FE02
:102D500008B1FDF7EEFB4FF48050119011A92C48FB
:102D6000FEF7F2FE08B1FDF7E4FB2948FFF7DAF9B8
:102D700008B1FDF7DEFB00200F9010900FA924484A
:102D8000FEF722FE08B1FDF7D4FB6020089000207A
:102D900009900A900B900C900D900E90002208A9BB
:102DA0001B48FFF73DF908B1FDF7C3FB042208A952
:102DB0001748FFF735F908B1FDF7BBFB082208A952
:102DC0001348FFF72DF908B1FDF7B3FB0C2208A952
:102DD0000F48FFF725F908B1FDF7ABFB0020009085
:102DE00001900290039004904FF400500590002051
:102DF000079069460648FEF7ADFD08B1FDF799FB5F
:102E00000348FFF78FF815B000BD00000004014033
:102E1000B005002000B587B01C216846FDF7DFFA39
:102E20001248134908600020486000211048816062
:102E300040F61F51C160002101618161FFF772F905
:102E400008B1FDF776FB6020009000200190029011
:102E50000490002269460648FFF7E2F808B1FDF742
:102E600068FB0348FFF75EF807B000BD0040014073
:102E7000F805002010B50B480B4908604FF4E1300D
:102E80004860002108488160C16001610C214161F6
:102E900000218161C161FFF7C7FB08B1FDF749FB64
:102EA00010BD0000001001408806002010B50B483E
:102EB0000B4908604FF4E130486000210848816008
:102EC000C16001610C21416100218161C161FFF795
:102ED000ABFB08B1FDF72DFB10BD00000048004022
:102EE000D006002000BFFEE700BFFEE77047704736
:102EF00010B5FEF7ADF810BD0348006840F470004F
:102F0000014908607047000088ED00E010B50268D4
:102F10002D4B98420ED0B0F1804F0BD02B4B9842E6
:102F200008D02B4B984205D02A4B984202D02A4B0E
:102F3000984203D122F070024B681A43224B984208
:102F400020D0B0F1804F1DD0204B98421AD0204B9A
:102F5000984217D01F4B984214D01F4B984211D063
:102F60001E4B98420ED01E4B98420BD01D4B9842E0
:102F700008D01D4B984205D01C4B984202D01C4BE8
:102F8000984203D122F44072CB681A4322F08003A6
:102F90004C6943EA040202608B68C3620B68836277
:102FA000094B984202D00C4B984201D10B69036344
:102FB00001234361036903F001031BB1036923F09B
:102FC0000103036110BD0000000001400004004047
:102FD00000080040000C0040000401400040014097
:102FE000004401400048014000180040001C00401F
:102FF0000020004030B50C46816821F47F4142EA50
:10300000032525432943816030BD000030B5026AA5
:10301000056A25F0100505624368846924F4E044DC
:1030200024F440740D6844EA052422F020028D68DF
:1030300042EA0512124DA84200D103E0114DA84208
:1030400007D100BF22F08002CD6842EA051222F0CB
:1030500040020B4DA84202D00A4DA84209D123F4E8
:10306000806323F400634D6943EA85038D6943EA75
:103070008503436084614D688563026230BD000052
:10308000000001400004014077B581B004461546B8
:103090000298A062A58500206064222084F8420086
:1030A0002848E16BC8632848E16B08642748E16B56
:1030B000C8640020E16B086502AE32682368191D00
:1030C0002B46E06BFDF77AFE00BF002000902068E1
:1030D0000068009020684068009000BF00BF206931
:1030E00070B100BF00BF21680C3151E8001F41F4EE
:1030F000807021680C3141E80002002AF3D100BF42
:1031000000BF00BF2168143151E8001F41F00100E9
:103110002168143141E80002002AF3D100BF00BF4A
:1031200000BF2168143151E8001F41F040002168C0
:10313000143141E80002002AF3D100BF002004B09E
:1031400070BD0000EB3B0008353B00085D37000810
:1031500010B50248FFF7F4F810BD00008806002003
:1031600010B50248FFF7ECF810BD0000D0060020B3
:1031700000BFFEE710B50246002004E012F8013B54
:103180005840034B185C0B1EA1F10101F6D110BD94
:10319000263E000800B593B0302107A8FDF71FF9BF
:1031A000142102A8FDF71BF900BF0020019024485C
:1031B000006840F08050224908600846006800F02E
:1031C0008050019000BF00BF00BF002001901D484B
:1031D000006840F480401B4908600846006800F41D
:1031E0008040019000BF00BF0120079000040890BC
:1031F00002200D9041050E9119210F914FF4A871F5
:103200001091022111910421129107A8FEF73AF9B9
:1032100008B1FDF78EF90F200290022003900020E4
:1032200004904FF4A05005904FF480500690052173
:1032300002A8FDF7E7FF08B1FDF77BF913B000BD69
:10324000403802400070004070B50446B4F80422D3
:1032500004F582712068FEF7CBFF05462068C06B3D
:103260000068006820F008002168C96B09680860E0
:10327000284670BD2DE9F04105460E46F02E24D1BA
:103280002C462078032815D154F8012F6068A168D6
:10329000641E0F4B93F8903253B10D4BC3F8842248
:1032A000C3F88802C3F88C120323094F87F89032C1
:1032B00000BF09E02078012802D02078022803D13D
:1032C0002178034800F0ECF800BFBDE8F081000071
:1032D00098080020F0B503460E469BB9144600201E
:1032E0000DE0C0EBC00505EB4015074F07EB85016E
:1032F000D1F88C5004EB80010D60411CC8B2042849
:10330000EFDB00BFF0BD00009808002010B50121E0
:10331000014800F0C5F810BD9808002070B50446BB
:103320000D46012084F82401607AA84205D0D4F823
:103330002001401CC4F8200170BD627A206800F5AD
:10334000827104F19800FDF718F800200EE004F1F6
:1033500098010A5C211D095C8A4205D0D4F820112D
:10336000491CC4F82011E7E7411CC8B20428EEDB71
:10337000607A411E04F19800FFF7FCFE617A491E55
:1033800004F19802515C884205D0D4F82001401C19
:10339000C4F82001D0E704F19D00C4F81C019C236F
:1033A000195D2269D4F81C01904700BFC4E730B50D
:1033B000039C0025C0F8205180F82451C1600261AF
:1033C0004361046030BD000001469FED340A80ED8A
:1033D000000A9FED320A80ED020A9FED300A80ED6F
:1033E000030A9FED2E0A80ED040A9FED2C0A80ED62
:1033F000050A9FED2A0A80ED060A9FED280A80ED56
:10340000070A9FED260A80ED080A9FED240A81ED48
:10341000090A9FED220A81ED0A0A9FED200A81ED3B
:103420000B0A9FED1E0A81ED0C0A9FED1C0A81ED2F
:103430000F0A9FED1A0A81ED100A9FED180A81ED1F
:10344000110A9FED160A81ED120A9FED140A81ED13
:10345000130A50319FED110A81ED010A9FED0F0A09
:1034600081ED020A50390846B7EE000A81ED210AC3
:103470009FED0A0A81ED220A9FED080A81ED230AD9
:103480009FED060A81ED240A9FED040A81ED250ACD
:10349000002180F89810A0F89A10704700000000F2
:1034A00090F890222AB1012901D0022901D180F897
:1034B0009012704730B50468246824F480240568AD
:1034C0002C60046863608468402C04D10468A260A6
:1034D0000468E16003E00468A1600468E26030BD54
:1034E000014600208A6A8B69CBB932B1012A0DD01E
:1034F000022A03D0032A10D10EE000BFCB6A03F0EA
:103500008073B3F1807F00D1012007E0CB6AB3F173
:10351000C07F00D1012001E000E000BF34E08B69F2
:10352000B3F5005F1AD132B1012A07D0022A03D0C5
:10353000032A11D10AE000BF01200EE0CB6A03F09C
:103540008073B3F1807F00D1012006E0CB6AB3F134
:10355000C07F00D1012000E000BF15E032B1012A98
:1035600005D0022A04D0032A0CD103E000BF00BF1B
:10357000012008E0CB6A03F08073B3F1807F00D1B3
:10358000012000E000BF00BF70470000014608783E
:1035900010381823B0FBF3F20848805CC865032A92
:1035A00005D908686FF30900001D886503E0086805
:1035B0006FF309008865886D70470000063E0008BB
:1035C00030B5026A056A25F0010505624368846921
:1035D00024F0700424F003040D682C4322F002024E
:1035E0008D682A43104DA84200D103E00F4DA84238
:1035F00006D100BF22F00802CD682A4322F004025F
:10360000094DA84202D0094DA84207D123F4807386
:1036100023F400734D692B438D692B434360846110
:103620004D684563026230BD000001400004014066
:1036300030B5026A056A25F4807505624368C4697D
:1036400024F0700424F003040D682C4322F400726B
:103650008D6842EA0522124DA84200D103E0114DC7
:10366000A84207D100BF22F40062CD6842EA0522D9
:1036700022F480620A4DA84202D00A4DA84209D124
:1036800023F4805323F400534D6943EA05138D69F5
:1036900043EA05134360C4614D68C563026230BDEF
:1036A000000001400004014030B5036A056A25F4BA
:1036B000805505624468C26922F4E04222F44072F7
:1036C0000D6842EA052223F400538D6843EA05336E
:1036D000084DA84202D0084DA84204D124F48044E9
:1036E0004D6944EA85144460C2614D680564036213
:1036F00030BD000000000140000401400A4681681E
:1037000021F0700142F0070319438160704730B522
:103710000B461446026A056A25F0010505628169B7
:1037200021F0F00141EA041122F00A021A438161FA
:10373000026230BD30B50B461446026A056A25F0B8
:1037400010050562816921F4704141EA043122F0DB
:10375000A00242EA03128161026230BD70B50646E2
:103760000025B46B20684069C0F3C01594F841008F
:10377000212805D125B10020E084204600F022FA5E
:1037800020684069C0F3801594F84200222805D1D2
:1037900025B10020E085204600F0DEF9606C40F0A5
:1037A000100060642046FEF773FD70BD2DE9F84FF0
:1037B00004462068006920F44050E168084321680D
:1037C00008612169A068084361690843E169084309
:1037D00000902068C06849F20C6188430099084352
:1037E0002168C8602068406920F44070A1690843DE
:1037F0002168486176492068884203D0754920686D
:10380000884203D1FDF7D6FD814602E0FDF7C2FDF7
:103810008146E069B0F5004F6CD102206168A0FBE1
:10382000015003461920A9FB007001462A4638467C
:10383000FCF72CFD6421B0FBF1F04FEA001A0220E6
:103840006168A0FB01510B461920A9FB00712A46B3
:103850003846FCF71BFD834602206168A0FB01503F
:1038600003461920A9FB00712A463846FCF70EFDD5
:103870006421B0FBF1F000EBC00101EB0010ABEBF9
:103880008000322101EBC0006421B0FBF1F000F0B8
:10389000F8000AEB400A02206168A0FB01500346D1
:1038A0001920A9FB007001462A463846FCF7EEFCB9
:1038B000834602206168A0FB015003461920A9FB42
:1038C00000712A463846FCF7E1FC6421B0FBF1F0B8
:1038D00000EBC00101EB0010ABEB8000322101EBEB
:1038E000C0006421B0FBF1F000F0070050442168F3
:1038F00088606AE004206168A0FB0150034619203B
:10390000A9FB007001462A463846FCF7BFFC8246F8
:1039100004206168A0FB015003461920A9FB007038
:1039200001462A463846FCF7B1FC6421B0FBF1F0B1
:1039300000EBC00101EB0010AAEB8000322101EB8B
:1039400000106421B0FBF1F000F0F00A042061687F
:10395000A0FB017003461920A9FB00513A462846F6
:10396000FCF794FC6421B0FBF1F00AEB001A042090
:103970006168A0FB01510B461920A9FB00712A4682
:103980003846FCF783FC834604206168A0FB0150A5
:1039900003461920A9FB007001462A463846FCF769
:1039A00075FC6421B0FBF1F000EBC00101EB0010ED
:1039B000ABEB8000322101EB00106421B0FBF1F091
:1039C00000F00F00504421688860BDE8F88F0000C7
:1039D0000010014000140140F8B5044694F842007C
:1039E000222875D1A068B0F5805F0CD1206950B94C
:1039F0000025A66A20684068C0F308003080A06AED
:103A0000801CA06215E0A56A0026A068B0F5805F62
:103A100003D0A06828B9206918B9206840682870C8
:103A200004E02068406800F07F002870A06A401C15
:103A3000A062E08D401E80B2E085002846D120685B
:103A4000C06820F020002168C8602068C06820F4A9
:103A500080702168C8602068406920F001002168FA
:103A60004861202084F8420000206063206B012818
:103A700026D10020206300BF00BF21680C3151E82F
:103A8000001F21F0100021680C3141E80002002ADB
:103A9000F3D100BF2068006800F0100010280AD1A0
:103AA00000BF0020009020680068009020684068F7
:103AB000009000BF00BFA18D2046FEF7D3FB02E0BF
:103AC0002046FEF703FF0020F8BD01E00020FBE7E1
:103AD0000220F9E7014691F84100212828D18868A1
:103AE000B0F5805F0BD1086948B90A6A1088C0F345
:103AF00008000B685860086A801C086205E00B6AC1
:103B0000581C086218780B685860C88C401E80B238
:103B1000C88458B90868C06820F080000B68D86075
:103B20000868C06840F040000B68D860002070470B
:103B30000220FCE770B50546AC6B01206063206B8A
:103B4000012805D1A08D41082046FEF78BFB02E03D
:103B50002046FEF7BCFE70BD00BF00BF02680C32FD
:103B600052E8002F22F4907102680C3242E80013F0
:103B7000002BF3D100BF00BF00BF0268143252E82F
:103B8000002F22F001010268143242E80013002BDA
:103B9000F3D100BF016B01290ED100BF00BF026845
:103BA0000C3252E8002F22F0100102680C3242E879
:103BB0000013002BF3D100BF202180F84210002118
:103BC0000163704700BF00BF02680C3252E8002F4B
:103BD00022F0C00102680C3242E80013002BF3D13E
:103BE00000BF202180F84110704770B50546AC6BCE
:103BF0002868006800F48070002842D1E08500BF8A
:103C000000BF21680C3151E8001F21F48070216849
:103C10000C3141E80002002AF3D100BF00BF00BF11
:103C20002168143151E8001F21F00100216814318E
:103C300041E80002002AF3D100BF00BF00BF2168A5
:103C4000143151E8001F21F040002168143141E88F
:103C50000002002AF3D100BF202084F84200206B2C
:103C600001280ED100BF00BF21680C3151E8001FB0
:103C700021F0100021680C3141E80002002AF3D144
:103C800000BF00206063206B012804D1A18D204675
:103C9000FEF7E8FA02E02046FEF718FE70BD10B508
:103CA00004462068C06820F040002168C8602020D9
:103CB00084F841002046FEF70BFE002010BD70B5D1
:103CC0000546AC6B0020E085E0842046FEF7E0FA74
:103CD00070BD000010B5002804DB0A07130E054A6A
:103CE000135406E00A07140E034A00F00F031B1FCB
:103CF000D45410BD00E400E018ED00E00248006874
:103D0000C0F30220704700000CED00E02DE9F04107
:103D10001C4617460E00804607D0054602E028469E
:103D2000B0473D442046641EF9D24046BDE8F081CC
:103D300010B5134C04239C2212492046FFF7E6FFDE
:103D400004469FED110A80ED9C0A9FED100A80ED5C
:103D50009D0A9FED0E0A80ED9E0A9FED0D0A80EDF3
:103D6000A10A9FED0B0A80EDA20A9FED090A80EDE2
:103D7000A30A002084F89002A4F8920210BD00006B
:103D800098080020C93300084A0C823DCDCC4C3F36
:103D90000000000008B50448044B054A054900909E
:103DA0000548FFF704FB08BD180200200D3300088A
:103DB00075320008D53200082C0B0020FDF754F9AD
:103DC000FFF7E8F9FEF7F0FDFEF7AAFDFEF784FD28
:103DD000FEF782FEFEF7BCFEFEF7F8FEFEF734FFAC
:103DE000FEF794FFFFF716F8FFF744F8FFF75EF8C9
:103DF000FEF766FFFEF738FE00BFFEE74FF04070AB
:103E0000E1EE100A704700061016000610160000BA
:103E1000000000000000010203040607080900007A
:103E2000000001020304005EBCE2613FDD83C29C2E
:103E30007E20A3FD1F419DC3217FFCA2401E5F0188
:103E4000E3BD3E6082DC237D9FC1421CFEA0E1BF3A
:103E50005D0380DE3C62BEE0025CDF81633D7C226C
:103E6000C09E1D43A1FF4618FAA427799BC584DA9A
:103E70003866E5BB5907DB856739BAE40658194748
:103E8000A5FB7826C49A653BD987045AB8E6A7F9FA
:103E90001B45C6987A24F8A6441A99C7257B3A642C
:103EA00086D85B05E7B98CD2306EEDB3510F4E105A
:103EB000F2AC2F7193CD114FADF3702ECC92D38D08
:103EC0006F31B2EC0E50AFF1134DCE90722C6D33BA
:103ED000D18F0C52B0EE326C8ED0530DEFB1F0AEEC
:103EE0004C1291CF2D73CA947628ABF5174908561A
:103EF000B4EA6937D58B5709EBB536688AD495CBC8
:103F00002977F4AA4816E9B7550B88D6346A2B7579
:103F100097C94A14F6A8742AC896154BA9F7B6E8AB
:103F20000A54D7896B350000503F0008000000207C
:103F300020040000C40100086C3F00082004002099
:103F4000980E000000020008E9FDFFFF49FEFFFF98
:103F5000514210520108FF24F4008806002001FF9E
:0C3F60009105FFD006002001FF91000039
:040000050800018965
:00000001FF
